:020000040800F2
:10000000E0100020E501000871090008050900085A
:100010006D090008E5070008271600080000000029
:10002000000000000000000000000000891100082E
:10003000E907000800000000050A00089D120008FA
:10004000FF010008FF010008FF010008FF01000890
:10005000FF010008FF010008FF010008FF01000880
:10006000FF010008FF010008FF010008FF01000870
:10007000FF010008FF010008FF010008FF01000860
:10008000FF010008FF010008FF010008FF01000850
:10009000FF010008FF010008FF010008FF01000840
:1000A000FF010008FF010008FF010008FF01000830
:1000B000FF010008FF010008FF010008FF01000820
:1000C000FF010008FF010008FF010008FF01000810
:1000D000FF0100087D130008FF0100080514000857
:1000E000FF010008FF010008FF01000800F002F80E
:1000F00000F068F80AA090E8000C82448344AAF15A
:100100000107DA4501D100F05DF8AFF2090EBAE857
:100110000F0013F0010F18BFFB1A43F0010318473B
:1001200044340000643400000A444FF0000C10F81E
:10013000013B13F0070408BF10F8014B1D1108BF65
:1001400010F8015B641E05D010F8016B641E01F805
:10015000016BF9D113F0080F1EBF10F8014BAD1C55
:100160000C1B09D16D1E58BF01F801CBFAD505E073
:1001700014F8016B01F8016B6D1EF9D59142D6D3CD
:10018000704700000023002400250026103A28BFF5
:1001900078C1FBD8520728BF30C148BF0B607047F9
:1001A000642900F08980002070471FB500F0C2FA72
:1001B00004000020002103F0BFF9401C60601FBD57
:1001C00010B510BD00F091FA1146FFF7EEFF02F0F6
:1001D0005FFD00F0C1FA03B4FFF7F2FF03BC01F0CA
:1001E0002BFA00000948804709480047FEE7FEE770
:1001F000FEE7FEE7FEE7FEE7FEE7FEE7FEE7FEE7D7
:1002000004480549054A064B70470000A112000842
:10021000ED000008E00A0020E0100020E00C0020C3
:10022000E00C0020704700000FB4044910B503AA89
:10023000029800F0B1F910BC5DF814FB1401002025
:100240000FB41CB5074B06AA7B446946009005987D
:1002500000F089F90020694600F098F91CBC5DF8AF
:1002600014FB00004103000070B504468569006876
:10027000C10601D5302600E02026C00707D070BD9A
:10028000D4E9012130469047206A401C20626D1E4F
:10029000F6D570BD70B5044685690078C00707D1F2
:1002A00070BDD4E9012120209047206A401C2062C3
:1002B0006D1EF6D570BD00002DE9F0410646002404
:1002C00010687529314616A510D0AFF300800028BC
:1002D00002DA404213A507E031688A0701D512A56A
:1002E00002E0490704D511A5012401E0AFF3008025
:1002F00000210A2206F1240709E0B0FBF2FCB0FB62
:10030000F2F302FB1C00303078541846491C0028D8
:10031000F3D123462A463046BDE8F04100F0C4B888
:10032000000000002D0000002B0000002000000055
:100330002DE9F0474FF0000A89460446C0F820A096
:100340002046E1688847002876D0252806D0D4E9E1
:1003500001219047206A401C2062F1E7E1682046B5
:1003600000258847C4F81CA006460027C4F818A03A
:100370002A2E09D0304601F058F938B304EB87082B
:10038000303EC8F8186019E059F8041B204604EB09
:1003900087029161E1688847012F064618D1E0691C
:1003A000002820DA25F020051DE0D8F8180000EB21
:1003B000800006EB40003038C8F818002046E1689D
:1003C0008847064601F031F90028EED1012F0AD006
:1003D0002E2E08D12046E16888477F1C0646022F52
:1003E00045F02005C4DBA069002803DA404245F04F
:1003F0000105A061E80701D025F01005B6B1A6F10E
:100400004100192802D8203645F400654A46314695
:10041000204625604D46FFF7C3FE58B1012806D09F
:10042000ED1D25F0070000F1080989E704E005F15A
:10043000040985E730468AE7206ABDE8F08770B591
:10044000064600F02DF80468054630460A220021D1
:1004500000F0B4F82C6070BD10B5431C02E010F839
:10046000011B71B18107FAD14FF0013202C88C1A19
:100470008C4314EAC211F9D0C01A0A0603D0C01E78
:1004800010BDC01A10BD0A0401D0801E10BD0902A3
:10049000FCD0401E10BD7047704770477047000089
:1004A000004870477C0A00202DE9F0470D46994628
:1004B0009246044600F124080168880604D5E069E4
:1004C00021F01001216000E00120A84201DD471B5E
:1004D00000E00027A1697A1902EB0900081AA0615F
:1004E0002078C00602D42046FFF7BEFE002608E0B2
:1004F000D4E901211AF806009047206A401C761CB6
:1005000020624E45F4DB2078C0060AD52046FFF76E
:10051000ABFE06E0D4E9012130209047206A401C60
:100520002062381EA7F10107F4DC07E0D4E90121BD
:1005300018F805009047206A401C2062281EA5F18B
:100540000105F3DC2046FFF7A5FE2078000602D562
:100550000220BDE8F0870120FBE7000001694A1C8A
:1005600002610878704700B58FB0CDE901310021F4
:10057000059105497944CDE9031011466846FFF716
:10058000D7FE0FB000BD0000E5FFFFFF0A6802F8CC
:10059000010B0A6070470000074B70B50D467B44A5
:1005A000FFF7E1FF0446284600F09BF810B14FF03A
:1005B000FF3070BD204670BD232500002DE9F047B7
:1005C00091460F4680460446002614F8015B2DB183
:1005D00000F030F80068405DC007F6D12B2D02D046
:1005E0002D2D18D0641E4A463946204600F02AF8C0
:1005F00027B13968A14201D1C7F800804FF0020449
:1006000071050BD54042002803DDFFF749FF046068
:10061000A007BDE8F08746F48066E4E70028F8DA32
:10062000FFF73EFF04606FF00040F2E700487047BC
:100630007C0A002010B500F07DF8001D10BD00BF41
:10064000F92E00002DE9F05F824615468B46002703
:100650000AF10104B9460078302801D09DB113E0B9
:1006600014F8010B0127782803D0582801D045B190
:100670000AE00DB1102D07D1002714F8010B102549
:1006800002E0082500E00A250026B0460EE005FB42
:10069000080005FB06F101271FFA80F801EB104660
:1006A000B6F5803F00D3B94614F8010B294600F097
:1006B00045F80028EBDABBF1000F05D00FB1641E3E
:1006C00000E05446CBF80040B9F1000F06D0FFF728
:1006D000E7FE02210160C81EBDE8F09F48EA06401F
:1006E000FAE7007B00F0800070477546FFF79EFF39
:1006F000AE4605006946534620F00700854618B00F
:1007000020B5FFF77DFDBDE820404FF000064FF01B
:1007100000074FF000084FF0000B21F00701AC4636
:10072000ACE8C009ACE8C009ACE8C009ACE8C00955
:100730008D467047004870479C0A00203A2800D236
:10074000303820F02002412A01D3A2F1370088423C
:1007500001D34FF0FF3070470446AFF300802046CE
:10076000FFF739FD4FF0013C50F8042B51F8043BE2
:100770009A4221D1A2EB0C03934313EACC1317D175
:1007800050F8042B51F8043B9A4215D1A2EB0C030C
:10079000934313EACC130BD150F8042B51F8043BCC
:1007A0009A4209D1A2EB0C03934313EACC13DBD09A
:1007B0004FF00000704700BFD01A01BAB1FA81F1C2
:1007C00001F0180122FA01F0CB40C1F12001DBB2A7
:1007D000C0B2C01A2CFA01F3D11A914311EAC31125
:1007E000E6D1704700BFFEE770472DE9F0410246B1
:1007F00000250026002000230024002791F803C0D4
:100800000CF00F0591F803C00CF0100CBCF1000FB8
:1008100003D091F802C04CEA050591F800C0BCF184
:10082000000F31D0146800202BE04FF0010C0CFABF
:1008300000F3B1F800C00CEA03069E4220D1830009
:100840004FF00F0C0CFA03F7BC4305FA03FC4CEA1B
:10085000040491F803C0BCF1280F06D14FF0010C3D
:100860000CFA00FCC2F814C00AE091F803C0BCF115
:10087000480F05D14FF0010C0CFA00FCC2F810C073
:10088000401C0828D1D31460B1F800C0BCF1FF0FA0
:1008900034DD546800202EE000F1080C4FF0010810
:1008A00008FA0CF3B1F800C00CEA03069E4221D10D
:1008B00083004FF00F0C0CFA03F7BC4305FA03FC5E
:1008C0004CEA040491F803C0BCF1280F05D100F1F3
:1008D000080C08FA0CF8C2F8148091F803C0BCF1B7
:1008E000480F07D100F1080C4FF0010808FA0CF886
:1008F000C2F81080401C0828CED35460BDE8F081B7
:100900000161704700BFFEE708B50121042000F037
:100910008BF84FF48070ADF8000010208DF80300C4
:1009200003208DF8020069460E48FFF75EFF4FF482
:1009300080710C48FFF7E4FF0121202000F074F8DB
:100940000420ADF8000010208DF8030003208DF87E
:10095000020069460448FFF748FF04210248FFF7F8
:10096000CFFF08BD000801400014014000BFFEE7B2
:10097000704710B54FF4A06000F03AF810BD0000C9
:1009800070B5002100230F22C47804B3154C2468ED
:1009900004F4E064C4F5E064210AC1F10403CA4030
:1009A000447804FA03F184781440214309010E4C81
:1009B0000678A155047804F01F050124AC400578A1
:1009C0006D11AD0005F1E025C5F8004109E004789E
:1009D00004F01F050124AC40044D0678761145F85B
:1009E000264070BD0CED00E000E400E080E100E096
:1009F00002490143024A1160704700000000FA05F5
:100A00000CED00E07047000029B1064AD2690243AC
:100A1000044BDA6104E0034AD2698243014BDA6194
:100A2000704700000010024029B1064A9269024353
:100A3000044B9A6104E0034A92698243014B9A6134
:100A4000704700000010024030B500210022002451
:100A500000232D4D6D6805F00C0121B1042905D04E
:100A6000082923D105E0294D056022E0274D0560C6
:100A70001FE0254D6D6805F47012234D6D6805F477
:100A80008034022505EB92421CB9214D5543056087
:100A90000BE01D4D6D6805F400351DB11C4D55432F
:100AA000056002E0194D5543056002E0174D0560F1
:100AB00000BF00BF144D6D6805F0F0010909154D28
:100AC0006B5C0568DD4045600F4D6D6805F4E061C5
:100AD000090A104D6B5C4568DD4085600A4D6D6804
:100AE00005F46051C90A0B4D6B5C4568DD40C5607B
:100AF000054D6D6805F44041890B074D6B5CC56879
:100B0000B5FBF3F5056130BD0010024000127A001C
:100B100000093D00190100202901002010B5012025
:100B200002490860FF2000F0A1F910BD8C012142AC
:100B300070B5054601220021092000F0E0F90446C5
:100B400024B91021284600F055F90446FFF7E6FFC6
:100B50000CB1012070BD0020FCE770B5054640F6E1
:100B6000FF7401E0601E84B2FF2000F07FF9A8420C
:100B700001D0002CF6D10CB9FF2070BD0020FCE79D
:100B80007FB56846FFF7D4FF10B1002004B070BDF8
:100B90009DF8000000F0C000402809D19DF8090030
:100BA0009DF8081000EB0120401C84B2A50220E053
:100BB0009DF8050000F00F009DF80A1000EBD11021
:100BC0009DF8091001F0030100EB4100861C9DF81F
:100BD000080080119DF8071000EB81009DF80610B9
:100BE00001F0030100EB8120441CA6F1090004FA86
:100BF00000F52846CAE70000F8B500F017F900F044
:100C000040F9002504E0FF2000F030F9681C85B2AF
:100C10000A2DF8DB142600BF95220021084600F0BB
:100C20006EF90446012C04D03000A6F101018EB209
:100C3000F2D1002051490870012C4AD187224FF48B
:100C4000D571082000F05BF9012847D1002506E0A6
:100C5000FF2000F00BF90DF80500681C85B2042D8B
:100C6000F6DB9DF80200012879D19DF80300AA283F
:100C700075D14FF6FE7600BF01220021372000F02B
:100C80003EF901229107292000F039F9044624B1E8
:100C90003000A6F101018EB2EED1002E5FD001220C
:100CA00000213A2000F02BF9002858D1002506E059
:100CB000FF2000F0DBF80DF80500681C85B2042D5C
:100CC000F6DB9DF8000000F0400018B106202B492B
:100CD000087044E004202949087040E00122002106
:100CE000372000F00CF901220021292000F007F93B
:100CF0000446012C17DC0220204908704FF6FE76CE
:100D000000BF01220021372000F0F9F80122002164
:100D1000292000F0F4F80446BCB13000A6F101012E
:100D20008EB2EED111E00120144908704FF6FE7624
:100D300000BF01220021104600F0E1F8044624B172
:100D40003000A6F101018EB2F3D12EB10122510281
:100D5000102000F0D4F810B1002008490870FFF707
:100D6000DDFE00F089F80548007808B10020F8BDE4
:100D70000CB12046FBE7AA20F9E700000C01002097
:100D80002DE9F04106460F46154619480078062819
:100D900000D07F02012D0CD101223946112000F034
:100DA000AEF80446FCB96902304600F023F8044668
:100DB00019E001223946122000F0A1F8044600BFD4
:100DC0004FF40071304600F015F8044606F5007641
:100DD000681EC0B2050001D0002CF1D00122002114
:100DE0000C2000F08CF8FFF799FE2046BDE8F0815A
:100DF0000C01002070B504460D46FE20FFF7ADFE45
:100E000008B1012070BD04E0FF2000F081F92070DE
:100E1000641C2800A5F101018DB2F5D1FF2000F07E
:100E200025F8FF2000F022F80020EBE708B50121AB
:100E30000420FFF7F9FD1C20ADF8000010208DF80C
:100E4000030003208DF8020069460648FFF7CDFC39
:100E50001C210448FFF754FD00F01EF9012002494F
:100E6000086008BD000801408C01214210B504460D
:100E7000204600F04DF910BD10B5002000F072F9C9
:100E800010BD10B5382000F06DF910BD10B5002070
:100E90000549086000F06FF808B9002010BDFFF7A1
:100EA0003DFE0120FAE700008C01214270B50646A4
:100EB0000D4600F060F808B1012070BD2846FFF72C
:100EC000D5FFFD2D19D0002404E0305D00F020F99D
:100ED000601C84B2B4F5007FF7DBFF20FFF7C6FF8C
:100EE000FF20FFF7C3FFFF20FFF7C0FF044604F019
:100EF0001F00052801D00220DFE70020DDE72DE9F3
:100F0000F04105460C4617464FF00008FFF706FE75
:100F1000FFF7BCFF10B1FF20BDE8F08145F04000B5
:100F2000FFF7A4FF200EFFF7A1FFC4F30740FFF770
:100F30009DFFC4F30720FFF799FFE0B2FFF796FF8C
:100F40003846FFF793FF0C2D02D1FF20FFF78EFFED
:100F50004FF01F0800BFFF20FFF788FF064606F08E
:100F6000800030B15FEA0800A8F1010101F0FF083C
:100F7000F1D13046D0E710B5002400BFFF20FFF7C5
:100F800075FFFF2801D1002010BD641C6FF07F4069
:100F90008442F3D30120F7E72DE9F04106460F46DE
:100FA000154620480078062800D07F02012D0CD17C
:100FB000012239461820FFF7A2FF04466CBBFE2130
:100FC0003046FFF773FF044627E0164800780128F3
:100FD00009D0012200213720FFF791FF0122294685
:100FE0001720FFF78CFF012239461920FFF787FFF2
:100FF000044694B900BFFC213046FFF757FF044672
:1010000006F50076681EC0B2050001D0002CF2D0B3
:10101000FD210020FFF74AFF0446FFF77FFD204631
:10102000BDE8F0810C01002021B1028842F04002AD
:10103000028004E002884FF6BF731A4002807047B6
:101040000246002013890B400BB1012000E0002074
:1010500070470146888970478181704710B500222A
:10106000028802F441520B884C8823438C88234326
:10107000CC8823430C8923434C8923438C89234305
:10108000CC8923431A430280838B4FF2FF742340A1
:1010900083830B8A038210BD08B5012141F204004D
:1010A000FFF7C2FCE020ADF8000018208DF8030027
:1010B00003208DF8020069461248FFF796FBE021F5
:1010C0001048FFF71DFC00200F4908804FF4827084
:1010D0004880002088800220C880012008814002CA
:1010E0004881382088810020C8810720088207486D
:1010F000FFF7B4FF01210548FFF796FFFF2000F03E
:1011000007F808BD00080140280200200030014017
:1011100070B50546002405E0601CC4B2C82C01DD92
:10112000002070BD02210E48FFF78AFF0028F3D08F
:1011300029460B48FFF790FF002400BF0121084813
:10114000FFF77EFF0028F9D0601CC4B2C82C01DD77
:101150000020E6E70248FFF77CFFC0B2E1E70000AD
:101160000030014010B50446054884810146054819
:10117000FFF774FF01210348FFF756FF10BD000081
:101180002802002000300140704710B500F002F83E
:1011900010BD00000CB5002001900090334800689D
:1011A00040F480303149086000BF3048006800F4E6
:1011B000003000900198401C0190009818B90198E7
:1011C000B0F5A06FF1D12948006800F4003010B1EB
:1011D0000120009001E0002000900098012843D1F8
:1011E0002348006840F01000214908600846006864
:1011F00020F0030008600846006840F00200086024
:101200001A484068194948600846406848600846DE
:10121000406840F4806048600846406820F47C10D4
:1012200048600846406840F4E81048600846006896
:1012300040F08070086000BF0C48006800F000704B
:101240000028F9D00948406820F0030007494860A9
:101250000846406840F00200486000BF034840680C
:1012600000F00C000828F9D10CBD0000001002406D
:1012700000200240042808D14FF0E021096941F024
:1012800004014FF0E022116107E04FF0E02109690D
:1012900021F004014FF0E022116170477047000017
:1012A00010B51348006840F0010011490860084675
:1012B0004068104908400E494860084600680E49D9
:1012C00008400B4908600846006820F48020086048
:1012D0000846406820F4FE0048604FF41F00886014
:1012E000FFF753FF4FF000600449086010BD000095
:1012F000001002400000FFF8FFFFF6FE08ED00E0DE
:1013000030B5ADF50D7D044601A9002001F074F85B
:10131000204600F0B1FF05460021084601F06CF8B8
:1013200028460DF50D7D30BD2DE9F041ADF58B6DF5
:1013300004460F4615461E468AA9002001F05CF8B7
:101340001222214601A801F06DF88046294601A825
:1013500000F0BAFE80466B463246394601A801F0DD
:101360005AFA804601A800F0A4FE0021084601F0C8
:1013700043F840460DF58B6DBDE8F08110B540F2A5
:1013800025511D4800F08EF810B31B4800F046F9B7
:10139000C4B21A48007800F08000C8B91748007835
:1013A00000F0400060B10A2C03D0002013490870FF
:1013B00020E01248007840F080001049087019E0E1
:1013C0000D2C06D10D48007840F040000B49087004
:1013D00010E00A48007800F03F0009490C54074823
:1013E0000078401C05490870084600783F2801DD58
:1013F0000020087010BD00000038014018010020D6
:101400003A0A002010B540F225511D4800F04AF874
:1014100010B31B4800F002F9C4B21A48008800F467
:101420000040C8B91748008800F4804060B10A2C19
:1014300003D000201349088021E01248008840F4BE
:101440000040104908801AE00D2C06D10D48008894
:1014500040F480400B49088011E00A480088C0F33E
:101460000D0009490C5407480088401C05490880B4
:1014700008460088B0F5006F01DD0020088010BD2F
:10148000004800400E0100203A02002021B182896C
:1014900042F40052828104E082894DF6FF731A40C3
:1014A0008281704770B50246002400230025002089
:1014B00040F66A16B14200D100BFC1F3421501F0F7
:1014C0001F03012606FA03F3012D02D1968933404A
:1014D00006E0022D02D1168A334001E0968A33409D
:1014E0000C12012606FA04F41688344013B10CB12C
:1014F000012000E0002070BDF0B503460024002666
:101500000025002040F66A17B94200D100BF1846F6
:10151000C1F3421401F01F06012707FA06F5012C5A
:1015200001D10C3004E0022C01D1103000E0143065
:101530001AB107682F43076002E00768AF430760EE
:10154000F0BD00002DE9F04786B005460E460024A8
:10155000A24600BFA1460027B08900B100BF2F46B8
:101560002C8A4CF6FF700440F08804432C82AC892E
:101570004EF6F3100440B08831890843718908435E
:101580000443AC81AC8A4FF6FF400440B089044369
:10159000AC8201A8FFF758FA1F48874202D1DDF854
:1015A00010A001E0DDF80CA0A88900F4004040B1D3
:1015B0000AEBCA0000EB0A1031684900B0FBF1F8F1
:1015C00007E00AEBCA0000EB0A1031688900B0FBA3
:1015D000F1F86420B8FBF0F004012009642101FB5C
:1015E0001089A88900F4004040B1322000EBC90006
:1015F000B0FBF1F000F00700044308E0322000EBFC
:1016000009106421B0FBF1F000F00F0004432C81BD
:1016100006B0BDE8F0870000003801400146888828
:10162000C0F30800704700BFFEE730380A2801D237
:10163000012070470020704700BF704770B5044616
:101640000D46607801232A4604F1300100F0F0FCD9
:1016500008B1032070BD94F82E1294F82F0241EACD
:1016600000204AF65521884201D00220F2E794F882
:101670006900010694F8680041EA004194F86700A7
:1016800041EA002094F86610084320F07F400E499C
:10169000884201D10020DDE794F88500010694F826
:1016A000840041EA004194F8830041EA002094F864
:1016B0008210084320F07F400349884201D1002076
:1016C000C8E70120C6E7000046415400024600E09A
:1016D000521C107810B110788842F9D110787047F8
:1016E0002DE9F74F88B008980068019001980078BC
:1016F00030380790079809280AD8019840783A2886
:1017000006D10198801C019008990198086001E0B9
:1017100000200790079818B10B200BB0BDE8F08FA0
:10172000D049079851F82040099804600CB90C2062
:10173000F3E7207878B1607800F099FC804608F0F3
:10174000010040B90A9820B108F0040008B10A204D
:10175000E3E70020E1E700202070079860706078E0
:1017600000F025FC804608F0010008B10320D4E712
:101770000A9820B108F0040008B10A20CDE74FF024
:10178000000B59462046FFF759FF054600BF012DC3
:1017900021D14FF0000ABAF1000F03D0AAF10100E5
:1017A00000F0FF0A4FF4DF7000EB0A1104F1300083
:1017B0000F18387978B1F87A0106B87A41EA004111
:1017C000787A41EA0020397A40EA010B59462046EE
:1017D000FFF734FF0546032D01D101209DE70DB130
:1017E0000D209AE73B20015D94F83C0041EA00207F
:1017F000B0F5007F01D00D208FE74620015D94F801
:10180000470041EA0029B9F1000F0ED194F85700C2
:10181000010694F8560041EA004194F8550041EA67
:10182000002094F8541040EA0109C4F81C904020AC
:10183000065DE670012E03D0022E01D00D206CE76C
:1018400009FB06F93D20005D0646A07016B1701E2A
:10185000304008B10D2060E74120015D94F842005E
:1018600041EA00202081207A00F00F0008B10D200D
:1018700053E74320015D94F8440041EA00200690BC
:10188000069870B994F85300010694F8520041EAA2
:10189000004194F8510041EA002094F850100843A8
:1018A00006903E20015D94F83F0041EA002002903E
:1018B000029808B90D2030E702984844218900EBCE
:1018C00011100590DDE90501814201D20D2024E7C8
:1018D000DDE90510401AA178B0FBF1F004900498FE
:1018E00008B90D2019E7012540F6F67104988842E1
:1018F00000D302254FF6F6710498884200D30325E1
:101900000498801CA06105985844A062029858442D
:101910002062032D16D1208908B10D20FDE694F830
:101920005F00010694F85E0041EA004194F85D0012
:1019300041EA002094F85C1008436062A0698000CE
:10194000039014E0208908B90D20E6E6206A484497
:101950006062022D02D1A069400007E0207E00F005
:101960000100A16901EB410100EB51000390E16925
:10197000039800F2FF10B1EB502F01D20D20CCE6FE
:101980004FF0FF3020610020E060032D5CD16071DA
:1019900094F8601094F8610041EA002058446061B6
:1019A0006078012304F13001626900F041FBE8BB7B
:1019B00094F82E1294F82F0241EA00204AF655219D
:1019C000884241D13320005D01063220005D41EAAA
:1019D00000413120005D41EA002094F830100843B6
:1019E0002149884230D194F81702010694F8160272
:1019F00041EA004194F8150241EA002094F81412DB
:101A000008431A4988421FD194F81F02010694F82E
:101A10001E0241EA004194F81D0241EA002094F8B8
:101A20001C120843E06094F81B0200E00CE0010681
:101A300094F81A0241EA004194F8190241EA0020A0
:101A400094F8181208432061257009480088401C4A
:101A500080B207490880E0800020E062207100BF6A
:101A60005BE6000030010020525261417272416118
:101A7000340100200246891E9069801E884201D8E8
:101A8000002070479378906A01FB0300F9E72DE985
:101A9000F04704468946B9F1000F06D1E76817B14F
:101AA000A069B84211D801270FE04946204601F04D
:101AB00017F80646022E02D20120BDE8F087A06981
:101AC000B04201D93046F8E74F463D4600BF6D1C95
:101AD000A069A84204D80225BD4201D90020ECE744
:101AE0002946204600F0FCFF064606B909E0701CB6
:101AF00008B1012E01D13046DFE7BD42E7D1002019
:101B0000DBE700BF6FF070422946204601F06BFA18
:101B10008046B8F1000F08D1B9F1000F05D02A4670
:101B20004946204601F05FFA8046B8F1000F09D11E
:101B3000E5602069401C68B12069401E20610120D9
:101B4000607107E0B8F1010F02D14FF0FF3000E003
:101B5000012005462846B0E72DE9F35F0198D0F84B
:101B6000009001E009F1010999F800002F28F9D04F
:101B700099F800005C28F5D0009886690B22202196
:101B8000304601F0EDF900252F46AB464FF0080A2C
:101B900000BF58460BF1010B19F80040202C03DD63
:101BA0002F2C01D05C2C00D157E02E2C01D05745B2
:101BB0000DD3BAF1080F01D12E2C02D00620BDE8BA
:101BC000FC9F08274FF00B0AA806050EE1E7802CC2
:101BD00001DB45F00305812C01DB9F2C03DDE02CAC
:101BE00020DBFC2C1EDC58460BF1010B19F80080A1
:101BF000B8F1400F02DBB8F17E0F05DDB8F1800FC0
:101C000006DBB8F1FC0F03DCAAF10100B84201D8F1
:101C10000620D4E738467F1C345438467F1C06F82B
:101C2000008019E0214620A0FFF750FD08B10620F2
:101C3000C5E7412C04DB5A2C02DC45F0020508E024
:101C4000612C06DB7A2C04DC45F00105A4F12000B0
:101C5000C4B238467F1C34549BE700BF09EB0B012C
:101C600001980160202C01DC042000E000200446E3
:101C70000FB90620A3E73078E52801D105203070A0
:101C8000BAF1080F01D1A806050E05F003000128DE
:101C900001D144F0100405F00C00042801D144F0F7
:101CA0000804F47200208AE7222A2B2C3A3B3C3DA0
:101CB0003E3F5B5D7C7F000010B504466FF0040082
:101CC000FFF7D8FAE11704EB5171C1F3C701074AD6
:101CD00011701046007800EB4001C1EBC0104FF6C8
:101CE000FF7101EAC0000249088010BD1001002008
:101CF0001201002001460D4A12884A434FF0E023AA
:101D00005A6100229A6101221A6100BF4FF0E0225D
:101D1000106900F001021AB100F48032002AF5D0F7
:101D200000224FF0E0231A619A61704712010020EF
:101D30002DE9F04104460021204600F0EAF805466E
:101D400015B12846BDE8F08100BF2169206801F087
:101D500011F9054605B116E0666937780FB9042513
:101D600011E0F07A00F0080030B90B223046A1698A
:101D700001F0D6F800B906E00021204600F006F890
:101D80000546002DE1D000BF2846DBE72DE9F041F4
:101D90000446884600BFE088401C86B20EB1206928
:101DA00010B90420BDE8F08106F00F0000286FD1C3
:101DB0002069401C2061E06828B920680089B04291
:101DC00066DC0420EEE720688078401E00EA1610EA
:101DD00000285DD1E168206800F082FE0546012DF3
:101DE00001D80220DEE7681C08B90120DAE7206884
:101DF0008069A84246D8B8F1000F01D10420D1E78C
:101E0000E1682068FFF743FE05460DB90720C9E7E2
:101E1000012D01D10220C5E7681C08B90120C1E7E6
:101E20000021206801F0A6F808B10120BAE7216876
:101E300001F130004FF40072002101F091F82946C1
:101E40002068FFF717FE2168C862002710E0012014
:101E5000216808710021206801F08CF808B1012088
:101E6000A0E72068C06A401C2168C862781CC7B21D
:101E700020688078B842EADC2068C06AC01B21680C
:101E8000C86200BFE56029462068FFF7F3FD2061C6
:101E9000E6802068303006F00F0100EB41106061F1
:101EA00000207FE72DE9F04104460021204600F0A4
:101EB00030F80546ADB900BF2169206801F05AF835
:101EC000054605B10CE060690678E52E00D006B93C
:101ED00006E001212046FFF759FF0546002DEBD013
:101EE00000BF9DB92169206801F044F805466DB92D
:101EF000676920220021384601F032F80B2238466B
:101F0000A16901F020F80120216808712846BDE888
:101F1000F0812DE9F04104460E46E680A568012DCA
:101F200003D020688069A84202D80220BDE8F08171
:101F30002DB920680078032801D12068456A65B969
:101F4000E56020680089B04201DC0220EEE72068ED
:101F5000406A00EB1610206120E0206880780701BD
:101F600012E02946206800F0BBFD0546681C08B950
:101F70000120DBE7022D03D320688069A84201D845
:101F80000220D3E7F01B86B2BE42EADAE5602946BA
:101F90002068FFF76FFD00EB1610206120683030DD
:101FA00006F00F0100EB411060610020BEE770B544
:101FB00005461DB9FEF720FE044601E0012400BFDE
:101FC00000BF0CB1012070BD0020FCE72DE9F041FD
:101FD00006460F4615462EBB37B1012F1AD0022FE9
:101FE0000FD0032F1BD111E0002010490860FEF72D
:101FF000C2FF08B9002400E0012401200B49086059
:102000000FE04FF40070288000240AE008202880A8
:10201000002406E0FEF7B4FD2860002401E004245B
:1020200000BF00E001242046BDE8F0818C01214280
:102030002DE9F04105460E4617461C464FF00008B4
:1020400014B90420BDE8F08135B92246394630463E
:10205000FEF796FE804602E04FF0010800BF00BF89
:10206000B8F1000F01D10020ECE70120EAE70146BA
:10207000002070472DE9F04105460E4617461C46E4
:102080004FF0000814B90420BDE8F08135B92246AC
:1020900039463046FEF780FF804602E04FF00108E7
:1020A00000BF00BFB8F1000F01D10020ECE7012014
:1020B000EAE770B50446204600F051FB05460DB92D
:1020C00000202060284670BD2DE9F04704460E46EA
:1020D000A188206801F01AFA8246BAF1000F02D0F6
:1020E0005046BDE8F087A07900F0800008B10220DA
:1020F000F7E7E068B04204D2A07900F0020000B92E
:10210000E668D4F808904FF00008C4F80880002E64
:1021100077D0206880784702B9F1000F11D0701E87
:10212000B0FBF7F1A9F10100B0FBF7F0814208D351
:10213000A9F10100791E8843A060A068361A65697C
:1021400018E02569ADB900212068FFF7A0FC05461D
:10215000012D05D1A07940F08000A0710220C0E7D8
:10216000681C28B9A07940F08000A0710120B8E770
:1021700025616561002D44D029E0A07900F00200BE
:1021800038B129462068FFF782FC054635B93E463E
:102190001FE02946206800F0A3FC0546681C28B90A
:1021A000A07940F08000A07101209AE7012D03D9A9
:1021B00020688069A84205D8A07940F08000A0710D
:1021C00002208EE76561A0683844A060F61BBE421D
:1021D000D3D800BFA0683044A060C6F3080068B13F
:1021E00029462068FFF746FC8046B8F1000F06D16B
:1021F000A07940F08000A071022072E701E008EBB6
:1022000056282089C0F3080050B3A069404527D064
:10221000A07900F0400090B121684878012304F1D2
:102220002401A269FFF726FF28B1A07940F08000C1
:10223000A071012055E7A07920F04000A07121682D
:1022400048780123424604F12401FFF7F1FE28B14A
:10225000A07940F08000A071012042E7C4F8188006
:10226000D4E90201884205D9A068E060A07940F075
:102270002000A071504634E72DE9F1478BB000F003
:10228000A1FC0746012204A90BA8FFF729FA06467C
:10229000002E7BD101A80A9004A80B9900F0C2FB84
:1022A000064606B9082600BF042EF2D10021049884
:1022B000FFF7EDFB0546002605B90726012D00D1E5
:1022C0000226681C00B9012626B90021049800F0F6
:1022D00051FE0646002E68D129460498FFF7CAFB36
:1022E0008246049800F130044FF400720021204629
:1022F00000F036FE0B222021204600F031FE2E2079
:1023000020701020E072A775390AE175390C21762A
:10231000390E6176A576290AE176280C2075290EFA
:1023200061752022214604F1200000F00CFE2E20D1
:1023300084F82100DDF8188004980078032804D17F
:102340000498406A404500D1B04684F83A804FEA8C
:10235000182184F83B10C8F30741342001554FEA97
:10236000186184F83510049890F8029019E00498E8
:10237000C0F82CA00AF1010A01200499087100217B
:10238000049800F0F7FD06460EB10DE030E04FF482
:1023900000720021204600F0E3FDA9F1010000F0E9
:1023A000FF09B9F1000FE2D100BF1EB904A8FFF781
:1023B00079FD064626B12946049800F0CDFE17E0C7
:1023C000099C1020E072A775390AE175390C217655
:1023D000390E6176A576290AE176280C2075290E3A
:1023E0006175012004990871049800F0E9FE064621
:1023F00030460CB0BDE8F0870246012A01DB0B2015
:102400007047074850F822300BB10020187009B10E
:1024100000200870024840F822100020F0E7000079
:10242000300100202DE9F7438AB00546164600200A
:10243000286006F01F0626F0010203A90BA8FFF78B
:102440004FF90746CDF824D027B903A80B9900F01F
:10245000E9FA0746089C0FB904B9062706F01C00E4
:10246000002858D04FB1042F03D103A8FFF71AFD5D
:10247000074646F00806089C09E0E07A00F01100E3
:1024800008B1072703E006F0040000B10827002F79
:1024900040D106F0080000283CD000F093FB8046B5
:1024A00084F80E804FEA1821E1734FEA1841217435
:1024B0004FEA186161740020E07220770021617793
:1024C000A177E177A17EE07E41EA0021227D607D57
:1024D00042EA002041EA00490020A0760021E1768E
:1024E00020756175012003990871B9F1000F11D0B1
:1024F0000398D0F82C804946039800F02DFE07463B
:1025000047B9A9F101000399C8604146039800F05A
:1025100031FD07460EE06FB9E07A00F0100008B117
:10252000042707E006F0020020B1E07A00F0010085
:1025300000B1072747B906F0080008B146F02006A9
:102540000398C06AE8612C62F7B9AE71A17EE07EA3
:1025500041EA0021227D607D42EA002041EA0040FC
:102560002861E07F0106A07F41EA0041607F41EAE7
:102570000020217F0843E8600020A860A86103983C
:1025800028600398C088A88038460DB0BDE8F08365
:102590002DE9FF4F83B0044615469A46DDF810B08A
:1025A0000020CAF80000A188206800F0AFFF029068
:1025B000029818B1029807B0BDE8F08FA07900F03A
:1025C000800008B10220F6E7A07900F0010008B908
:1025D0000720F0E7D4E90210401A009000988542E5
:1025E00000D9009DB6E02089C0F3080000287DD105
:1025F00020688078401EA16800EA512000F0FF09A1
:10260000B9F1000F1DD1A06810B92069019004E054
:102610006169206800F064FA01900198022805D2EF
:10262000A07940F08000A0710220C4E70198401C0E
:1026300028B9A07940F08000A0710120BBE7019883
:10264000606161692068FFF715FA06462EB9A07926
:1026500040F08000A0710220ADE74E444FEA5528BB
:10266000B8F1000F2DD009EB080021688978884265
:1026700003D920688078A0EB090808F0FF032168DF
:10268000487832465946FFF7D3FC28B1A07940F08C
:102690008000A07101208EE7A07900F0400068B1B1
:1026A000A069801B404509D2A169891B0BEB412021
:1026B0004FF4007204F1240100F045FC4FEA482772
:1026C0003EE0A069B04227D0A07900F04000A0B160
:1026D00021684878012304F12401A269FFF7CAFCAC
:1026E00038B1A07940F08000A07100E015E0012031
:1026F00061E7A07920F04000A071216848780123AB
:10270000324604F12401FFF793FC28B1A07940F090
:102710008000A07101204EE7A6612089C0F3080067
:10272000C0F50077AF4200D92F462089C0F30802D8
:1027300004F1240011183A46584600F004FC00BF8A
:10274000BB44A0683844A060DAF800003844CAF8F6
:102750000000ED1B002D7FF446AF00202BE72DE994
:10276000F0410446A188206800F0D0FE0746002F03
:102770004FD1A07900F0200000284AD0A07900F0C5
:10278000400078B121684878012304F12401A2694E
:10279000FFF770FC10B10120BDE8F081A07920F0B6
:1027A0004000A071E169206800F0E4FB0746002FBB
:1027B0002FD1256AE87A40F02000E872207B287744
:1027C000A089010A6977E068010CA977E068010E29
:1027D000E977207CA876208A010AE9762069000C36
:1027E00028752069010E697500F0ECF90646AE7592
:1027F000310AE975310C2976310E6976A07920F01D
:102800002000A071012021680871206800F0D8FC28
:1028100007463846C0E72DE9FF4F83B0044615460A
:102820009B46049801900020CBF80000A188206806
:1028300000F06CFE0290029818B1029807B0BDE853
:10284000F08FA07900F0800008B10220F6E7A079AF
:1028500000F0020008B90720F0E7E0682844E168CA
:10286000884200D20025CDE02089C0F3080000286E
:1028700077D120688078401EA16800EA512000F0DE
:10288000FF0ABAF1000F2AD1A06858B9D4F8108015
:10289000B8F1000F0BD100212068FFF7F8F880464F
:1028A000206104E061692068FFF7F1F88046B8F123
:1028B000000F00D1A9E0B8F1010F05D1A07940F0D7
:1028C0008000A0710220B9E708F1010028B9A079C1
:1028D00040F08000A0710120B0E7C4F81480A07916
:1028E00000F0400090B121684878012304F12401F0
:1028F000A269FFF7BFFB28B1A07940F08000A0716A
:1029000001209BE7A07920F04000A0716169206858
:10291000FFF7B0F806462EB9A07940F08000A0710C
:1029200002208BE756444FEA5529B9F1000F2FD00A
:102930000AEB090021688978884203D920688078E9
:10294000A0EB0A0909F0FF03216848783246019993
:10295000FFF790FB30B1A07940F08000A07101201A
:102960006CE72CE0A069801B48450ED2A069801B53
:10297000019A02EB40214FF4007204F1240000F0B0
:10298000E2FAA07920F04000A0714FEA49272DE03B
:10299000A069B04212D0D4E9020188420ED2216867
:1029A00048780123324604F12401FFF741FB28B1A6
:1029B000A07940F08000A07101203FE7A661208946
:1029C000C0F30800C0F50077AF4200D92F46218937
:1029D000C1F3080204F1240150183A46019900F0AD
:1029E000B2FAA07940F04000A07100BF01983844CD
:1029F0000190A0683844A060DBF800003844CBF8B0
:102A00000000ED1B002D7FF42FAF00BFD4E90201C1
:102A1000884201D9A068E060A07940F02000A07150
:102A200000200BE72DE9F3410446019800782F2898
:102A300003D0019800785C2802D10198401C0190D5
:102A40000020A06001980078202807D200212046AD
:102A5000FFF75FFA0646002060612FE000BF01A982
:102A60002046FFF779F8064606B126E02046FFF734
:102A70005FF90646A069C77A46B1042E00D01CE073
:102A800000BF07F0040000B9052616E007F00400B7
:102A900000B112E06569E87A00F0100008B9052677
:102AA0000BE0A97EE87E41EA00212A7D687D42EAAA
:102AB000002041EA0040A060D1E700BF3046BDE8F9
:102AC000FC81000000BF054A128802F04002002A83
:102AD000F9D0C2B2014B1B1D1A807047003801406B
:102AE0002DE9F04105460C46022C02D3A869A0420C
:102AF00002D80120BDE8F0812878012804D00228FE
:102B00002CD003285AD13DE0274607EB5707286A07
:102B100000EB5721284600F02DFA00B14EE0C7F334
:102B2000080105F1300010F801807F1C286A00EBD5
:102B30005721284600F01EFA00B13FE0C7F3080114
:102B400005F13000405C48EA002804F0010010B1B3
:102B50004FEA1810CEE7C8F30B00CBE7286A00EB6A
:102B60001421284600F006FA00B127E040F2FF10D9
:102B700000EA440105F130000E183078717840EA1F
:102B80000120B7E7286A00EBD411284600F0F2F9DB
:102B900000B113E040F2FF1000EA840105F13000BB
:102BA0000E18F0780006B17840EA0140717840EAEA
:102BB00001203178084320F070409BE700BF4FF0C0
:102BC000FF3097E7002070472DE9F05F05460E467D
:102BD00017469846DDE90AAB4FF0000900244FE0A4
:102BE000285D3A2848D1B9F1060F44D2DFE809F050
:102BF000030C15202D384FF00109601C285C307043
:102C0000A01C285C707036E04FF00209601C285C44
:102C10003870A01C285C78702DE04FF00309601C10
:102C2000285C88F80000A01C285C88F8010022E0DD
:102C300009F1010000F0FF09601C285C8AF800001F
:102C4000A01C285C8AF8010015E04FF00509601C03
:102C5000285C8BF80000A01C285C8BF801000AE0BF
:102C60004FF00009601C295C0C980170A01C295CC5
:102C70000C98417000BF00E000E000BF601CC4B2CF
:102C80002846FDF7E9FBA042AAD8BDE8F09F000066
:102C90000EB5FEF705FB4820FFF70EF8FDF769FEBD
:102CA0004FF4165000F04AFB4FF4165000F0EEFAC5
:102CB000FDF72AFE0DE052A0FDF7B6FA4FF4FA70C8
:102CC000FFF718F853A0FDF7AFFA4FF4FA70FFF7CB
:102CD00011F8FDF791FF0028EDD152A0FDF7A4FAFD
:102CE000544955A000F01AFA56485749574A584BCC
:102CF000CDE900210290574A57494E48FFF764FF3B
:102D00005548FDF79CFB55490860084600680028B7
:102D10003BD153A0FEF7F4FA54A0FEF7F1FA55A008
:102D2000FDF782FA4D480068401C4C49086008468F
:102D300055A102685948FDF783FA5848FDF78CFB06
:102D400004462346002255493BA0FEF7EDFA54A065
:102D5000FDF76AFA414859A102685E48FDF770FA2A
:102D60005D48FDF779FB5D4908605B48FDF774FB42
:102D700004462346002258495648FEF7D5FA3748FC
:102D8000016857A0FDF750FA36E034480068401C4F
:102D90003249086008463CA102684048FDF750FAF5
:102DA0002448FDF759FB564908603C48FDF754FBA1
:102DB00004462346002239491FA0FEF7B5FA2DA08C
:102DC000FDF732FA25483DA102684248FDF738FA7E
:102DD0004148FDF741FB414908603F48FDF73CFB96
:102DE0000446234600223C493A48FEF79DFA1B4818
:102DF000016844A0FDF718FA01E000F0EFFAFCE7E3
:102E000053442043617264204661696C6564210DFE
:102E10000A000000506C6561736520436865636B50
:102E2000210D0A00436865636B205344204F4B21FA
:102E30000D0A000058010020636F6E6669672E74EA
:102E400078740000500100204B0100204601002052
:102E5000410100203C010020370100200801002032
:102E60007573657264617461000000007069637459
:102E7000757265004372656174652073756363657F
:102E80007373210D0A000000526561645F74696DFF
:102E900065733A2532640D0A00000000D801002055
:102EA000577269746520636F6E66696766696C65E1
:102EB0002E747874206F6B210D0A00007573657293
:102EC000646174612F25645F64617461732E637340
:102ED0007600000000020020000000200001002019
:102EE00057726974652075736572646174612F250A
:102EF000645F64617461732E6373760D0A00000071
:102F0000040100204372656174652025645F64617B
:102F10007461732E637376204F4B20210D0A0000DD
:102F2000F0B503461C460D46002000BF1600A2F176
:102F3000010207D014F8017B15F801CBA7EB0C06B2
:102F40003000F3D0F0BD70B503460C4603E014F832
:102F5000015B03F8015B1500A2F10102F7D170BD1E
:102F600030B5034601E003F8011B1400A2F1010291
:102F7000F9D130BD2DE9F04104460D46E66AAE4276
:102F80002FD0207908B360780123324604F1300154
:102F9000FFF770F810B10120BDE8F081002020712A
:102FA000D4E907100844B0420FD9E7780AE0E06995
:102FB000064460780123324604F13001FFF75AF8E5
:102FC000781EC7B2012FF2DC00BF55B16078012333
:102FD0002A4604F13001FFF72BF808B10120DBE7A6
:102FE000E5620020D8E72DE9F04705460E46174672
:102FF000022E02D3A869B04202D84FF002088AE03C
:103000002878012804D0022841D003287DD154E03B
:10301000B14609EB5909286A00EB59212846FFF708
:10302000A9FF8046B8F1000F00D071E0C9F3080194
:1030300005F130000C1806F0010020B1F9B220783B
:1030400061F31F1000E03846207009F101090120EA
:103050002871286A00EB59212846FFF78BFF80462C
:10306000B8F1000F00D053E0C9F3080105F13000BA
:103070000C1806F0010010B1C7F3071005E0207826
:1030800000F0F000C7F303210843207040E0286AF5
:1030900000EB16212846FFF76DFF8046B8F1000FC0
:1030A00000D035E040F2FF1000EA460105F13000A3
:1030B0000C182770380A60702AE0286A00EBD611D5
:1030C0002846FFF757FF8046B8F1000F00D01FE0F9
:1030D00040F2FF1000EA860105F130000C18E0789C
:1030E0000006A17840EA0140617840EA0120217899
:1030F000084300F0704007432770380A6070380CAE
:10310000A070380EE07003E0FFE74FF0020800BF48
:1031100000BF012028714046BDE8F08730B5ADF210
:103120005C4D04460D468BA90020FFF765F901228E
:10313000214602A8FFF776F901AB294602A8059AB5
:10314000FFF726FA02A8FEF7B4FF00210846FFF7B2
:1031500053F90DF25C4D30BD2DE9F04104460E46A9
:10316000022E02D3A069B04201D8022725E0002731
:103170001FE031462046FFF7B3FC054605B91BE0CA
:10318000012D01D1022717E0681C08B9012713E0BF
:10319000002231462046FFF726FF074607B10BE025
:1031A0002069401C20B12069401C20610120607111
:1031B0002E46A069B042DCD800BF3846BDE8F08199
:1031C00070B5044600212046FFF7D4FE0546002DC9
:1031D00059D1207803284FD1607900284CD00020A5
:1031E000E0624FF40072002104F13000FFF7B8FEF6
:1031F000552184F82E12AA2184F82F12522084F827
:1032000030005221312001556121322001554121E8
:1032100033200155722184F8141284F815124121CB
:1032200084F81612612184F81712217C84F8181290
:10323000208A010A84F819122069010C84F81A12F4
:103240002069010E84F81B12217B84F81C12A089CE
:10325000010A84F81D12E068010C84F81E12E0686F
:10326000010E84F81F126078012304F130016269B5
:10327000FEF700FF00206071607800221146FEF723
:10328000A5FE00B10125284670BD000010B586B02E
:10329000044601210820FDF7C7FB01218804FDF742
:1032A000B3FB01210846FDF7BFFB4FF48060ADF88A
:1032B000140003208DF8160018208DF8170005A9BA
:1032C0001C48FDF792FA4FF40060ADF8140004209A
:1032D0008DF8170005A91748FDF787FA27208DF804
:1032E000000003208DF8010001208DF802008DF808
:1032F00003006846FDF744FB01940020ADF8080088
:10330000ADF80A00ADF80C00ADF810000C20ADF8D7
:103310000E0001A90848FEF715F9012240F22551D7
:103320000548FEF7E9F801210348FEF7AFF806B0BB
:1033300010BD0000000C01400048004010B586B0F0
:103340000446012144F20500FDF76EFB4FF40070C6
:10335000ADF8140003208DF8160018208DF8170022
:1033600005A91C48FDF741FA4FF48060ADF8140040
:1033700004208DF8170005A91648FDF736FA252018
:103380008DF8000003208DF801008DF80200012067
:103390008DF803006846FDF7F3FA01940020ADF8BC
:1033A0000800ADF80A00ADF80C00ADF810000C20D4
:1033B000ADF80E0001A90848FEF7C4F8012240F25A
:1033C00025510548FEF798F801210348FEF75EF8FD
:1033D00006B010BD000801400038014030B5ADF620
:1033E000040D002500242B48008800F4004000282C
:1033F00034D028480088C0F30D0427A0FCF714FF40
:1034000000BF05E02948405D01A94855681C85B208
:10341000A542F7DB0D2001A908550A2101AA601C6D
:103420001154FDF7E9FB90B921A0FCF7FDFE01A8BE
:10343000FDF712F825490968084424490860A31CCF
:10344000084601A902682248FDF76EFF02E021A0AC
:10345000FCF7EAFE00200F49088017E025480078B5
:1034600019280BD1FDF7C8FB28B123A0FCF7DCFE1F
:103470001CA0FCF7D9FE00201E4908701D480078EA
:10348000401C1C4908701420FEF734FC0DF6040D96
:1034900030BD00000E01002052656365697665202D
:1034A00044617461204F4B0D0A0000003A02002075
:1034B000546573745F665F777269746566696C657D
:1034C000204F4B2121210D0A0000000000010020A7
:1034D0000002002053442043617264204661696CFD
:1034E00065642120506C6561736520436865636B7A
:1034F000210D0A00360100205344204361726420EC
:103500004661696C6564210D0A00000070B50446CF
:103510000D4624B1207810B1E088A84201D00920DE
:1035200070BD6078FEF7A3FD00F0010008B1032034
:10353000F6E70020F4E7000010B500290AD008786B
:10354000002807D005487844FDF70CF9002801D081
:10355000002010BD0248784410BD00003E0000006D
:1035600036000000943600080000002058010000DA
:10357000280100083C37000858010020880F00008F
:10358000840100081001000043000000F8FFFFFF65
:103590000040404040404040404041414141414066
:1035A000404040404040404040404040404040401B
:1035B00040050202020202020202020202020202AA
:1035C00002202020202020202020200202020202AF
:1035D0000202909090909090101010101010101007
:1035E0001010101010101010101010100202020213
:1035F0000202888888888888080808080808080857
:103600000808080808080808080808080202020252
:10361000400000000000000000000000000000006A
:10362000000000000000000000000000000000009A
:10363000000000000000000000000000000000008A
:10364000000000000000000000000000000000007A
:10365000000000000000000000000000000000006A
:10366000000000000000000000000000000000005A
:10367000000000000000000000000000000000004A
:10368000000000000000000000000000000000003A
:10369000000000002852626565702C6C69676874D0
:1036A0002C736572766F2C6861726D66756C6761DC
:1036B000732C756C74726176696F6C65742C7465AB
:1036C0006D70657261747572652C68756D69646979
:1036D00074792C70686F746F636F6E647563746F48
:1036E000722C707265737321180A6779726F5F7834
:1036F0005F7374304A730EBA790E6A7A0E8E616304
:1037000063656C2B490F792C490F792D8C6D61679E
:103710002B290D7929290D79277D6C6F6E670C5C3B
:103720006174690C03310D0A2D01020304040009C0
:0C3730002B060708090204060800000030
:04000005080000ED02
:00000001FF
