:020000040800F2
:1000000060F90020450100084F04000811040008B1
:100010004D0400086903000899130008000000005F
:1000200000000000000000000000000005100008B3
:100030006B03000800000000F1060008C91000086A
:100040005F0100085F0100085F0100085F01000810
:100050005F0100085F0100085F0100085F01000800
:100060005F0100085F0100085F0100085F010008F0
:100070005F0100085F0100085F0100085F010008E0
:100080005F0100085F0100085F0100085F010008D0
:100090005F0100085F0100085F0100085F010008C0
:1000A0005F0100085F0100085F0100085F010008B0
:1000B0005F0100085F0100085F0100085F010008A0
:1000C0005F0100085F0100085F0100085F01000890
:1000D0005F010008951100085F010008F911000890
:1000E0005F0100085F0100085F0100085F01000870
:1000F0005F0100085F0100085F0100085F01000860
:100100005F0100085F0100085F0100085F0100084F
:100110005F0100085F0100085F0100085F0100083F
:100120005F0100085F0100085F0100085F0100082F
:10013000DFF80CD000F07AF800480047B12800083A
:1001400060F900200648804706480047FEE7FEE7C2
:10015000FEE7FEE7FEE7FEE7FEE7FEE7FEE7FEE777
:10016000CD10000831010008421C10F8011B0029C5
:10017000FBD1801A704770B5064601F033F9046868
:1001800005460A220021304600F018F82C6070BDA8
:1001900030B50B46014600202022012409E021FA57
:1001A00002F59D4205D303FA02F5491B04FA02F554
:1001B0002844151EA2F10102F1DC30BD2DE9F04703
:1001C00091460F4680460446002614F8015B2DB187
:1001D00000F03EF80068405DC007F6D12B2D02D03C
:1001E0002D2D18D0641E4A463946204600F034F8BA
:1001F00027B13968A14201D1C7F8008071054FF0DD
:1002000002040BD54042002803DD01F0EBF8046046
:10021000A007BDE8F08746F48066E4E70028F8DA36
:1002200001F0E0F804606FF00040F2E7064C074D83
:1002300006E0E06840F0010394E8070098471034B6
:10024000AC42F6D3FFF778FF683900088839000818
:1002500000487047643900082DE9F05F8246007855
:10026000002715468B460AF10104B946302801D013
:100270009DB113E014F8010B0127782803D058280A
:1002800001D045B10AE00DB1102D07D1002710258E
:1002900014F8010B02E0082500E00A250026B0460C
:1002A0000EE005FB080005FB06F1012701EB1046F7
:1002B0001FFA80F8B6F5803F00D3B94614F8010B59
:1002C000294600F018F80028EBDABBF1000F05D042
:1002D0000FB1641E00E05446CBF80040B9F1000FA6
:1002E00006D001F07FF802210160C81EBDE8F09F32
:1002F00048EA0640FAE73A2800D2303820F02002D7
:10030000412A01D3A2F13700884201D34FF0FF30D8
:10031000704770B58C1810F8015B15F0070301D118
:1003200010F8013B2A1106D110F8012B03E010F858
:10033000016B01F8016B5B1EF9D12B0705D400237B
:10034000521E0DD401F8013BFAE710F8013BCB1A1D
:10035000921C03E013F8015B01F8015B521EF9D512
:10036000A142D8D3002070BDFEE77047F0B5CC782D
:10037000002204F00F03E40601D58C7823430C78A7
:100380004FF00F0C14F0FF0F4FF0010E1BD005685B
:100390000E880EFA02F42640A64210D196000CFAFE
:1003A00006F725EA070703FA06F5CE783D43282E1F
:1003B00002D0482E02D002E0446100E00461521CE9
:1003C000082AE5D305600A88FF2A1CD94468002260
:1003D00002F108060EFA06F50E882E40AE420ED146
:1003E00096000CFA06F7BC4303FA06F7CE783C43B6
:1003F000282E00D14561CE78482E00D10561521CCF
:10040000082AE5D34460F0BD41617047016170473F
:10041000FEE7000038B50121102000F077F94FF415
:100420004074ADF8004010208DF803000320064D05
:100430008DF8020069462846FFF798FF21462846B6
:10044000FFF7E2FF38BD000000100140FEE77047F3
:100450004FF4A06000F032B830B50F23C2780178B5
:100460000125F2B1144A126801F1E02102F4E062C0
:10047000C2F5E062120AC2F10404D3404278A240FD
:1004800084781C401443220181F80024007800F095
:100490001F018D404009800000F1E020C0F80051AC
:1004A00030BD01F01F0085404809800000F1E020C8
:1004B000C0F8805130BD00000CED00E00249084357
:1004C00002490860704700000000FA050CED00E0EA
:1004D0002DE9F843002401211C2000F017F94FF406
:1004E0008076ADF8006048258DF803500320DFF8D2
:1004F0003C818DF8020069464046FFF737FF3146E0
:100500004046FFF783FF7600ADF8006010278DF8B6
:10051000037069464046FFF729FF31464046FFF722
:1005200075FFFF20ADF800008DF803506946404884
:10053000FFF71CFF0126DFF8FC80ADF800608DF8A6
:10054000035069464046FFF711FF01214046FFF77F
:100550005DFF0220ADF800008DF80350694640466B
:10056000FFF704FF02214046FFF750FF0420ADF8DB
:1005700000008DF8037069464046FFF7F7FE04213E
:100580004046FFF743FF2C480025C0F8A4510A203D
:1005900001F02EFB294FC7F888510A2007F5C477D0
:1005A00001F026FB3E6000F007F90121FF2000F07A
:1005B0001FFA8021122000F01BFA322001F018FBF4
:1005C0001C2000F07DF94FF6FF7505EA00261D207E
:1005D00000F076F940EA0601A1F5FE40A23805D008
:1005E00017A000F0DBFE0120BDE8F8830A2000F030
:1005F00067F905EA00250B2000F062F940EA0501E1
:10060000A1F51850423802D010A000F0C7FE124DDC
:1006100005EB4400417815F8140000F0E9F9641C7A
:10062000A4B2B22CF4D30020DEE70000000C01409D
:1006300000100140000801400080214200002142DA
:100640004D49443A25640D0A000000004849443AE7
:1006500025640D0A000000001C37000870B50E4D1F
:10066000002405EB4400417815F8140000F0C0F9AF
:10067000641CA4B2082CF4D3074D0024103505EBFC
:100680004400417815F8140000F0B2F9641CA4B2DB
:10069000072CF4D370BD00008038000870B58207C5
:1006A00001D0012070BD8A0701D0022070BD8408EE
:1006B0008D080021FF2000F09BF90421E02000F0CC
:1006C00097F9E1B25A2000F093F9E9B25B2000F00B
:1006D0008FF90421C4F3012001EA951101435C2044
:1006E00000F086F90021E02000F082F9002070BDC2
:1006F00070470000044A0029D16901D0014300E09D
:100700008143D1617047000000100240044A002973
:10071000916901D0014300E081439161704700007D
:100720000010024030B5204A5168204B11F00C01F6
:1007300003D0042901D0082901D0036012E05168D8
:10074000536801F470114FF0020413F4803F04EB7E
:10075000914102D053689B0301D5154B00E0134B28
:100760005943016051680F2303EA1111114B5C5C7E
:100770000168E14041605468072505EA14241C5DC6
:1007800021FA04F48460546805EAD4241B5DD9403E
:10079000C1605268032303EA9232064B1B1F9A5C26
:1007A000B1FBF2F1016130BD0010024000127A008D
:1007B00000093D005001002038B501210420FFF759
:1007C000A5FF4FF40064ADF8004010208DF8030041
:1007D0000320114D8DF8020069462846FFF7C6FD3B
:1007E00021462846FFF712FE6400ADF8004048227B
:1007F0008DF8032069462846FFF7B8FD21462846B4
:10080000FFF704FE281D016821F4702101600168D2
:1008100041F44031016038BD0008014070B532201C
:1008200001F0FAF90A4C0120C4F8B001C4F8AC0197
:10083000322004F5D67401F0EFF90025256032204E
:1008400001F0EAF96560BDE87040322001F0E4B9DA
:10085000000021422DE9F047174F0024386820F4AA
:1008600070203860386840F400203860134E082546
:100870004FF00108A146322001F0CEF9C6F8AC8154
:100880006006040ED6F8300108B1641CE4B23220D0
:1008900001F0C2F9C6F8AC916D1E15F0FF05EAD162
:1008A000386820F470203860386840F44030386090
:1008B0002046BDE8F0870000040801400000214206
:1008C00010B5044600F022F8602000F04DF86420D6
:1008D00001F0A2F9204600F047F8642001F09CF9ED
:1008E00000F02AF8642001F097F900F00FF8612079
:1008F00000F03AF8642001F08FF9FFF7ABFF0446EF
:10090000FFF78CFF00F018F8204610BD70B5094CB9
:100910000120C4F8B001C4F8AC01322004F5D6744B
:1009200001F07AF900256560322001F075F9256043
:1009300070BD00000000214270B50A4C0020C4F8D0
:10094000B001322004F5D67401F066F90125256066
:10095000322001F061F96560BDE87040322001F09D
:100960005BB90000000021422DE9F04100241E4E39
:100970000546A0460127280602D5C6F8B07101E059
:10098000C6F8B0816806050E322001F045F9C6F8B8
:10099000AC71322001F040F9C6F8AC81641CE4B2BD
:1009A000082CE8D3114C206820F4702020602068C7
:1009B00040F400202060322001F02EF9C6F8AC711E
:1009C000322001F029F9D6F8300100B10120C6F833
:1009D000AC81216821F470212160216841F440310B
:1009E0002160BDE8F08100000000214204080140C0
:1009F00070B50D4606460024FFF788FF6020FFF71C
:100A0000B3FF00B10124642001F006F93046FFF77E
:100A1000ABFF00B10124642001F0FEF82846FFF787
:100A2000A3FF00B10124FFF787FF204670BD00003F
:100A300003490120C1F88C01FF2000F0ABBA00008F
:100A40000000214270B5054601220021092000F076
:100A5000B1F9040004D11021284600F035F904460C
:100A6000FFF7E6FF0CB1012070BD002070BD70B52E
:100A7000054640F6FF7401E0641EA4B2FF2000F0BA
:100A80005FF9A84202D0002CF6D102E00CB10020A0
:100A900070BDFF2070BD1FB56846FFF7D3FF10B1D2
:100AA000002004B010BD9DF800100120B0EB911F94
:100AB00009D19DF808209DF8091000EB0220084498
:100AC00000048009EDE79DF805009DF80A1000F08C
:100AD0000F0000EBD1109DF809109DF8072001F0E0
:100AE000030100EB41019DF80800800900EB820042
:100AF0009DF8062002F0030200EB8220401CC91F73
:100B00008840CEE72DE9F84300F0F8F8382000F0EF
:100B100067FA0024FF2000F03DFA641CA4B20A2CFE
:100B2000F8D3142400219522084600F043F9054625
:100B3000012802D0641EA4B2F4D2474E0027012D32
:100B400037707AD187224FF4D571082000F032F93E
:100B50004FF6FE7801281ED001220021372000F038
:100B600029F901220021292000F024F901284FD879
:100B700002203070444601220021372000F01AF98B
:100B800001220021292000F015F905004DD0641E36
:100B9000A4B2F0D249E000246F46FF2000F0D0F864
:100BA0003855641CA4B2042CF7D39DF80200012828
:100BB00043D19DF80300AA283FD144464FF0804816
:100BC00001220021372000F0F5F8012241462920BA
:100BD00000F0F0F8050002D0641EA4B2F0D2B4B167
:100BE000012200213A2000F0E5F880B90024FF201E
:100BF00000F0A6F83855641CA4B2042CF7D39DF875
:100C00000000400601D5062000E00420307014E00A
:100C100001203070444601220021104600F0CAF83D
:100C2000050002D0641EA4B2F5D22CB101225102FB
:100C3000102000F0BFF800B13770FFF7F9FE002078
:100C400000F0CEF9307810B10020BDE8F8830DB186
:100C50002846FAE7AA20F8E7360100202DE9F041FE
:100C60000646184815460078062800D049024FF479
:100C70000077012D4FF0010219D0122000F09AF8F0
:100C80003946304600F020F86D1E044606F5007621
:100C900015F0FF0501D0002CF2D0012200210C201C
:100CA00000F088F8FFF7C4FE2046BDE8F08111206F
:100CB00000F080F80400F5D13946304600F004F821
:100CC0000446EFE73601002070B504460D46FE20CD
:100CD000FFF7CDFE28B1012070BD00F05BF904F8EC
:100CE000010B6D1EADB24FF0FF00F6D200F052F9CD
:100CF000FF2000F04FF9002070BD000038B5012141
:100D00000420FFF703FD1C20ADF8000010208DF833
:100D100003000320084C8DF8020069462046FFF7C7
:100D200025FB1C212046FFF771FB00F0F5F8034975
:100D30000120C1F88C0138BD0008014000002142AB
:100D400000F028B9064910B50020C1F88C0100F068
:100D500060F8002802D0FFF76BFE012010BD0000F4
:100D60000000214270B50C46054600F052F808B16B
:100D7000012070BD204600F00DF9FD2C18D0002494
:100D80004FF40076285D00F005F9641CA4B2B4426B
:100D9000F8D3FF2000F0FEF8FF2000F0FBF8FF2062
:100DA000FFF7CEFF00F01F00052801D0022070BD24
:100DB000002070BD70B516460C460546FFF738FE9C
:100DC000FFF7C0FF08B1FF2070BD45F0400000F004
:100DD000E1F8200E00F0DEF8C4F3074000F0DAF886
:100DE000C4F3072000F0D6F8E0B200F0D3F83046A4
:100DF00000F0D0F80C2D02D1FF2000F0CBF81F241A
:100E0000FF20FFF79DFF0106DED5641EE4B2F7D296
:100E100070BD70B500246FF07F45FF20FFF790FF95
:100E2000FF2804D0641CAC42F7D3012070BD002021
:100E300070BD000070B506461D4815460C4600788A
:100E4000062800D04C02012D13D0012809D0012220
:100E500000213720FFF7AEFF012229461720FFF7B8
:100E6000A9FF012221461920FFF7A4FF04000AD0A0
:100E70001AE0012221461820FFF79CFF040013D13D
:100E8000FE2130460DE0FC213046FFF76BFF6D1E62
:100E900006F5007615F0FF0501D00028F3D0FD21FE
:100EA0000020FFF75FFF0446FFF7C2FD204670BD3C
:100EB000360100200029018802D041F0400101E004
:100EC00021F04001018070470246002012890A4249
:100ED00000D001207047808970478181704730B50C
:100EE00002884C8802F441530A88CD8822438C88BA
:100EF0002C4322430C8922434C8922438C89224370
:100F0000CC8922431A430280828B22F400628283BE
:100F1000098A018230BD000038B5012141F2040088
:100F2000FFF7F4FBE020ADF8000018208DF8030077
:100F30000320154C8DF8020069462046FFF716FA8B
:100F4000E0212046FFF762FA104800214FF4827238
:100F50000180428081800222C280012202815202ED
:100F6000428138228281C18107210182084C0146D9
:100F70002046FFF7B4FF01212046FFF79BFFFF202B
:100F800000F008F838BD0000000801400CF5002012
:100F90000030014070B506460024104D03E0641C8B
:100FA000E4B2C82C13D802212846FFF78DFF002891
:100FB000F5D031462846FFF790FF0024012128464E
:100FC000FFF782FF0028F9D0641CC82C01D900204B
:100FD00070BD2846FFF77FFFC0B270BD00300140F2
:100FE00010B50649064C88812046FFF778FF204659
:100FF000BDE810400121FFF75DBF00000CF50020A7
:1010000000300140704700000CB5002226480092D5
:101010000192016841F4803101604FF4A0630168DE
:1010200001F4003101910099491C0091019911B915
:1010300000999942F3D10168890333D501210191C7
:101040001A490A6842F010020A600A6822F0030294
:101050000A600A6842F002020A6041684160416821
:101060004160416841F480614160416821F47C1134
:101070004160416841F4E8114160016841F08071CC
:10108000016001688901FCD5416821F003014160DC
:10109000416841F0020141604168C1F381010229C8
:1010A000FAD10CBD01920CBD00100240002002409C
:1010B0004FF0E0210428086903D020F00400086103
:1010C000704740F00400FAE7704700000F4810B581
:1010D000016841F00101016041680D4A1140416021
:1010E00001680C4A11400160016821F4802101600F
:1010F000416821F4FE0141604FF41F018160FFF758
:1011000083FF05494FF00060086010BD00100240E9
:101110000000FFF8FFFFF6FE08ED00E010B5ADF5AA
:101120000C7D04466946002001F02EF8204600F0B0
:1011300061FF04460021084601F026F80DF50C7DFC
:10114000204610BDF0B5ADF25C4D0D4604461E467E
:10115000174689A9002001F017F812222146684697
:1011600001F022F83946684600F0ABFE0DF2544318
:1011700032462946684601F0A6F90446684600F062
:1011800097FE0021084600F0FFFF0DF25C4D20465F
:10119000F0BD000070B5154C40F22551204600F01E
:1011A00069F800280ED0204600F0F2F8104AC1B2CB
:1011B0001078030606D444064FF0000306D50A292A
:1011C00001D0137070BD40F080000DE00D2909D0F2
:1011D00000F03F04074D401CC0B2295510703F2855
:1011E000EFD870BD40F04000107070BD0038014075
:1011F000440100201EF5002070B5164C40F2255128
:10120000204600F037F800280ED0204600F0C0F845
:10121000114AC1B21088030406D444044FF00003FD
:1012200006D50A2901D0138070BD40F400400EE0BD
:101230000D290AD0C0F30D04084D401C80B2295579
:101240001080B0F5006FEED870BD40F48040108083
:1012500070BD000000480040340100200CED00206B
:101260000029818902D041F4005101E021F40051AC
:101270008181704770B501F01F0501260024C1F37C
:10128000421306FA05F2012B0FD0022B0FD0838AEE
:101290004FEA11210088134206FA01F600EA06001F
:1012A00001D000B10124204670BD8389F0E7038A94
:1012B000EEE710B5C1F3421301F01F040121A14074
:1012C000012B07D0022B07D01430002A026805D06A
:1012D0000A4304E00C30F8E71030F6E78A43026076
:1012E00010BD000030B50446008A85B00D464CF6AE
:1012F000FF710840E98801432182A0894EF6F3116D
:101300000840A9882A8911436A8902431143A181AF
:10131000A08A4FF6FF410840A9890143A18268468F
:10132000FFF700FA1948844201D1039800E00298BF
:10133000A189090400EBC00101EB0010296801D567
:10134000490000E08900B0FBF1F06422B0FBF2F14B
:1013500009010B096FF018056B4300EB8300A389AB
:101360001D044FF0320306D503EBC000B0FBF2F0D2
:1013700000F0070005E003EB0010B0FBF2F000F016
:101380000F000843208105B030BD00000038014047
:101390008088C0F308007047FEE700000FB4054BDB
:1013A00010B503A9044A029800F030F810BC5DF8AB
:1013B00014FB0000F5260008480100200FB4084B7C
:1013C00010B504A902AA039800F020F8044602A967
:1013D000002000F0BCF9204610BC5DF814FB0000B2
:1013E0004F170008004870476001002002E008C85D
:1013F000121F08C1002AFAD170477047002001E08F
:1014000001C1121F002AFBD1704700002DE9FF4FD8
:101410008BB088460546002606E025280BD0DDE97E
:101420000D1290476D1C761C28780028F5D10FB05E
:101430003046BDE8F08F0024A146A2460122AE4905
:1014400000E0044315F8013F203B02FA03F0084294
:10145000F7D128782A2810D06FF02F022878A0F131
:101460003001092915D809EB890102EB410144F04B
:10147000020400EB01096D1CF0E758F8041B5FEA59
:10148000010903D544F40054C9F1000944F00204F1
:101490006D1C28782E2817D115F8010F44F004048C
:1014A0002A280ED06FF02F022878A0F130010929E8
:1014B0000AD80AEB8A0102EB410100EB010A6D1C1C
:1014C000F2E758F804AB6D1C28786C280FD006DCC6
:1014D0004C2817D068280DD06A2814D104E074284D
:1014E00010D07A280FD10DE044F400140AE044F43F
:1014F000801401E044F440146978814202D104F57B
:1015000080146D1C6D1C2878692865D006DC0028C5
:101510008DD0632827D0642806D15DE06E2808D0DE
:1015200073282AD0752877D0DDE90D129047761CF4
:10153000E0E0C4F30250022809D003280DD0D8F807
:10154000001004280DD00E6008F10408D2E0D8F88D
:101550000010F217C1E90062F6E7D8F800100E801B
:10156000F2E70E70F0E718F8041B8DF80010002069
:101570008DF80100EB46012003E058F804BB4FF062
:10158000FF3061074FF0000701D40AE07F1C574588
:101590000DDA8742FADB1BF807100029F6D106E0C6
:1015A0007F1C8742FCDB1BF807100029F8D1DDE91E
:1015B0000D23A9EB07008146214600F0B1F8304425
:1015C000C61904E0DDE90D121BF8010B90477F1EE0
:1015D000F8D22146484688E058F8040BC4F302517B
:1015E0004FF00A0B032900D100B2042900D140B208
:1015F000002802DA40422D2102E0210505D52B21E9
:101600008DF82410012104E006E0E10710D020212C
:10161000F6E708AF089113E058F8040BC4F3025141
:101620004FF00A0B032900D180B2042900D1C0B2C7
:101630000021EEE75946FEF7ABFD303107F8011DFA
:101640000028F7D1ADEB070000F1200B600702D5B1
:1016500024F4803401E04FF0010ADA4502DDAAEB00
:101660000B0000E00020824600EB0B0108980144CB
:10167000A9EB01000A90E00306D4DDE90D23214621
:101680000A9800F04DF806444FF0000908E009A957
:1016900011F80900DDE90D12904709F10109761CE6
:1016A00008998945F3DBE0030CD5DDE90D232146DC
:1016B0000A9800F035F8064404E0DDE90D12302008
:1016C0009047761CBAF10001AAF1010AF5DC05E0A9
:1016D000DDE90D1217F8010B9047761CBBF10001F4
:1016E000ABF1010BF4DC0A982146DDE90D2300F093
:1016F00005F806446D1C97E6092801002DE9F04124
:10170000044600251E461746880404D405E03946E1
:101710002020B0476D1C641EF9D52846BDE8F08135
:101720002DE9F041044600251E469046C80301D528
:10173000302700E02027880404D505E041463846DC
:10174000B0476D1C641EF9D52846BDE8F0810A68D3
:10175000531C0B601070704710B504460A46407861
:10176000012304F1300100F07FFB08B1032010BD1C
:10177000B4F82E12A1F52A40553801D0022010BD30
:1017800094F86600B4F8671040EA01210848B0EB0D
:10179000012F08D094F88210B4F8832041EA022186
:1017A000B0EB012F01D1002010BD012010BD0000C1
:1017B000004641542DE9F04715460A4601680B786A
:1017C000303B092B08D84C783A2C05D1891C016094
:1017D00013B10B20BDE8F0877648046814609CB113
:1017E000207820B1607800F050FBC1070ED04FF098
:1017F000000984F80090484684F8019000F003FB4B
:10180000C10708D00320E5E70C20E3E70DB140074E
:1018100004D40020DEE71DB1400701D50A20D9E736
:10182000002631462046FFF797FF01280CD104F52A
:10183000F7700179F1B3017AD0F8090041EA002686
:1018400031462046FFF788FF032801D090BB01E016
:101850000120BFE7B4F83B00B0F5007F57D1B4F8E2
:10186000460028B994F85400D4F8551040EA0120F5
:10187000E06194F840108446E170012901D002290A
:1018800045D194F83D504843A5709DB16A1E15425C
:101890003DD1B4F841202281110738D1B4F843106A
:1018A00029B994F85010D4F8513041EA0321E38F5C
:1018B00003B100E02BE01F1807EB1217B94226D343
:1018C000C91BB1FBF5F111B3012540F6F67841458E
:1018D00000D302254FF6F678414500D3032537445F
:1018E000891C3344A7622362A161032D11D072B118
:1018F00018446062022D17D001F0010001EB410194
:1019000000EB510000F2FF10BCEB502F0ED20D2067
:1019100060E7002AFBD194F85C00D4F85D2040EA2F
:10192000022060628800EDE74800EBE74FF0FF30EF
:10193000C4E903904F46032D31D16771B4F86000BC
:10194000012382196261607804F1300100F08CFAA1
:1019500028BBB4F82E02A0F52A4155391FD194F8BE
:101960003000D4F8311040EA01201349884216D1E2
:1019700094F81402D4F8151240EA01200F49884265
:101980000DD194F81C02D4F81D1240EA0120E06049
:1019900094F81802D4F8191240EA01202061054990
:1019A0002570091F0888401C0880E080E7622771C5
:1019B0002FE700003C0100205252614172724161E8
:1019C0008269891E921E8A4201D800207047826A6D
:1019D000807801FB0020704770B5094DFF22134647
:1019E00005F5807605E010F8014B54402A5D5A4019
:1019F000335D491EC9B2F6D243EA022070BD000031
:101A00001C3500082DE9F0410F00064606D000F015
:101A10007DFE022809D20120BDE8F081F56815B1EC
:101A2000B069A84205D8012503E0B1698142F3D825
:101A30003D462C46B069641CA04202D80224022D07
:101A40000AD32146304600F061FE38B1411CE3D094
:101A50000128E1D0AC42EDD10020DDE76FF070420B
:101A60002146304601F0E5FA30B957B122463946F1
:101A7000304601F0DEFA20B101280BD001242046C7
:101A8000CAE7F4603069411CF9D0401E3061012082
:101A90007071F4E74FF0FF34F1E700002DE9F047F3
:101AA00089460C6800E0641C21782F29FBD05C2952
:101AB000F9D085690B222021284601F075F9002014
:101AC000024613460827E15C5B1C20294CD92F29CC
:101AD0004AD05C2948D02E2901D0B84208D3082F1B
:101AE0004FD12E294DD108200B2791060A0EEAE787
:101AF000802901D342F00302A1F181061E2E02D9F2
:101B00005F3E1C2E13D8E65C5B1CA6F1400CBCF1BA
:101B10003F0F04D3A6F1800CBCF17D0F31D2A7F1A9
:101B2000010C60452DD22954401C2E541AE021A6E8
:101B300000E0761C96F800C0BCF1000F02D08C4586
:101B4000F7D11EE0A1F14106192E02D842F002029F
:101B500007E0A1F16106192E03D8203942F00102F5
:101B6000C9B22954401CAEE71C44C9F800402029E2
:101B700001D8042100E0002118B12878E52803D01D
:101B800004E00620BDE8F08705202870082F01D169
:101B90009006020E02F00300012801D141F010016D
:101BA000C2F38100012801D141F00801E97200204F
:101BB000E8E70000222A2B2C3A3B3C3D3E3F5B5D90
:101BC0007C7F000010B504466FF00400FFF770FA48
:101BD0000649E00800EB40020870C2EBC0104FF667
:101BE000FF7202EAC000488010BD000040010020E2
:101BF0000849498848434FF0E021486100238B6140
:101C0000012008610869C20701D0C003FAD50B6141
:101C10008B617047400100200849097848434FF024
:101C2000E021486100238B61012008610869C20737
:101C300001D0C003FAD50B618B61704740010020D1
:101C40002DE9F0410446C0880E46401C07043F0CB5
:101C50002DD0206958B339075DD1401C2061E1685F
:101C6000206829B18278521E12EA171F04D052E070
:101C70000089B8421BD94EE000F048FD0546012816
:101C80001AD9681C32D020688169A9423DD876B142
:101C9000E168FFF7B7FE05000CD0012D0CD0681CE1
:101CA00024D00021206801F086F8F8B906E004206D
:101CB000BDE8F0810720FBE70220F9E720684FF438
:101CC00000720021303001F06FF829462068FFF7DC
:101CD00077FE216800264FF00108C8620EE080F808
:101CE00004800021206801F066F808B10120DFE7D8
:101CF0002068C16A491C761CF6B2C16220688178EE
:101D0000B142ECD8C16A891BC162E56029462068EE
:101D1000FFF756FE2061E78007F00F0130222068B0
:101D200002EB4111084460610020C1E770B505462F
:101D3000002100F029F80EE02969286801F03BF83D
:101D400004001FD168690078E52807D030B101216F
:101D50002846FFF775FF0400EED013E029692868D4
:101D600001F029F804000DD16E69202200213046CF
:101D700001F01AF80B223046A96901F00DF8296824
:101D800001200871204670BD70B50D46C180816884
:101D9000044601291ED0206882698A421AD921B9D5
:101DA0000278032A04D1416A11B18078060117E054
:101DB000E1600189A9420DD9406A17E0206800F06E
:101DC000A5FC0146401C07D0022903D32068806986
:101DD000884203D8022070BD012070BDA81B85B2C7
:101DE000B542EBD2E1602068FFF7EAFD00EB151089
:101DF000206105F00F013022206802EB41110844F8
:101E00006061002070BD10B518B9FEF77BFE002898
:101E100000D0012010BD000010B5144608B101200B
:101E200010BD39B1012918D002290FD0032910D0D3
:101E3000042010BD0B4C0020C4F88C01FEF7E9FF14
:101E400000B101200121C4F88C1110BD4FF40070C5
:101E500000E008201080002010BDFEF71CFE20606E
:101E6000F9E700000000214270B514460D460BB1A1
:101E700048B901E0042070BD1A4621462846FEF705
:101E8000EDFE0028F7D0012070BD0020704770B52E
:101E900014460D460BB148B901E0042070BD1A4646
:101EA00021462846FEF7C6FF0028F7D0012070BD66
:101EB00010B5044600F0B5FA002801D100212160D8
:101EC00010BD2DE9F0410D4604468188006801F0FF
:101ED00015FB5FEA000803D1A179080602D50220AC
:101EE000BDE8F081E068A84202D2890700D4054627
:101EF0000027A068A760FDB1226891784E0268B102
:101F0000691E401EB1FBF6F1B0FBF6F3994205D312
:101F1000711E8843A0602D1A61690CE0216949B9DE
:101F200000211046FFF76EFD014601283FD0481CF6
:101F30004ED021616161D1B926E0A0798007206887
:101F400005D5FFF75FFD010004D1354611E000F033
:101F5000DDFB0146481C3BD0012928D92068806957
:101F6000884224D96161A068AD1B3044A060B542AD
:101F7000E3D8A0682844A060E80505D02068FFF7F2
:101F80001FFDA0B100EB55272089C00527D0A2690D
:101F9000BA4224D0A07904F12405400610D5206867
:101FA000012329464078FFF772FF88B904E0A07941
:101FB00040F08000A07192E7A07920F04000A0716D
:101FC000206801233A4640782946FFF74DFF28B1A3
:101FD000A07940F08000A071012081E7A761D4E9D9
:101FE0000201884204D9E060A07940F02000A0718D
:101FF000404675E72DE9F14F90B000F0E3FB07464E
:102000000122694610A8FFF7D5FB040009D10DA8ED
:1020100006906846109900F017FB040002D0042CCB
:1020200002D0ACE00824AAE000210098FFF7EAFC07
:1020300006004FF0000402D0012E02D002E0072477
:1020400000E00224701C01D014B179E0012477E093
:102050000021009800F0AFFE040071D131460098D5
:10206000FFF7AEFC009D804630354FF40072002132
:10207000284600F099FE0B222021284600F094FE0D
:102080002E242C701020E872F8B20C90A875C7F3BB
:1020900007200B90E875C7F307400A902876380EA2
:1020A00009906876F0B20890A876C6F307200790EA
:1020B000E876C6F3074B85F814B04FEA166A85F840
:1020C00015A02022294605F1200000F065FE85F8C4
:1020D0002140009902980978032904D10099496A9E
:1020E000814200D1002085F83A00010A85F83B10B2
:1020F000010C85F83410000E85F8350000984FF07B
:102100000109877815E00099C1F82C80009908F141
:10211000010881F804900021009800F04CFE0400B2
:102120000ED14FF400720021284600F03DFE7F1EC4
:10213000FFB2002FE7D16846FFF7F8FD040004D096
:102140003146009801F010F819E005981021C1728D
:102150000C9981750B99C1750A9901760999417697
:10216000089981760799C17680F814B080F815A097
:10217000009981F80490009801F027F8044611B006
:102180002046BDE8F08F000008B10B207047054BDA
:102190000022186800B1027001B10A7000201960B5
:1021A000704700003C0100202DE9F7478BB04FF04D
:1021B0000009074602F01F06C0F8009026F0010251
:1021C00069460CA8FFF7F6FA050007A8069004D1A7
:1021D00068460C9900F038FA0546059C0DB904B91B
:1021E000062516F01C0F4ED055B1042D03D16846BC
:1021F000FFF79CFD0546059C46F0080645B16AE0E0
:10220000E07A10F0110F48D1700701D5082562E07F
:10221000300748D500F0D6FAA073010AE173010C2B
:102220002174000E607484F80B9084F81C9084F87C
:102230001D9084F81E9084F81F90A28A618B84F808
:102240001A9084F81B9062F31F4184F814905FEA9F
:10225000010884F8159000994FF00100087141467B
:102260001FD00098D0F82CA000F07EFF050032D1DE
:102270000099A8F10100C8605146009800F09BFD4C
:10228000051E0CD027E035BBE07AC10601D5042538
:1022900021E0B10703D5C00701D007251BE03007B7
:1022A00001D546F020060098C06AC7E90704BE7150
:1022B000A18A608B61F31F403861207FD4F81D1024
:1022C00040EA0120C7E90290C7F8189000983860EA
:1022D0000098C088B8800EB02846BDE8F0872DE988
:1022E000F05F894600211960044681889A461646A7
:1022F000006801F003F9002803D1A079010602D596
:102300000220BDE8F09FC00708D0D4E90210401AAF
:1023100004F1240B864200D906467EE00720F0E750
:10232000A068C10561D122689178491E01EA502157
:1023300011F0FF0709D1F8B11046616900F0E6F924
:1023400002281BD3411C48D0606161692068FFF7F7
:1023500037FB98B100EB0708750A25D020687A1979
:1023600081788A4200D9CD1BEBB24078424649467B
:10237000FFF77AFD88BB06E02069E1E7A07940F02D
:102380008000A071BCE7A07940060BD5A169A1EB44
:102390000800A84206D209EB40204FF400725946CB
:1023A00000F0FAFC6D022EE0A26942451BD0A07934
:1023B00040060AD52068012359464078FFF767FD9B
:1023C00058B9A07920F04000A0712068012342464E
:1023D00040785946FFF748FD28B1A07940F08000C9
:1023E000A07101208DE7C4F818802089C0F308008F
:1023F000C0F50075B54200D9354601192A46484650
:10240000243100F0C9FCA068A9442844A060DAF88F
:1024100000004119761BCAF80010002E80D1002060
:102420006FE770B504468188006801F067F80028FE
:102430000ED1A1798A060BD548060ED52068012356
:1024400004F124014078A269FFF721FD08B10120C1
:1024500070BDA07920F04000A071E169206800F013
:10246000AAFC0028F4D1256AE87A40F02000E8723E
:10247000207B2877A089000A6877E068000CA8779D
:10248000E068000EE877207CA876208A000AE876CB
:102490002069000C28752069000E687500F092F91B
:1024A000A875010AE975010C2976000E6876A079F5
:1024B00020F02000A0712168012008712068BDE88B
:1024C000704000F082BE2DE9F05F8946002119605E
:1024D000044681889A461646006801F00FF80028E5
:1024E00003D1A079010602D50220BDE8F09F800744
:1024F00001D40720F9E7E06804F1240B8219824235
:1025000074D393E0A068C10574D122689178491E04
:1025100001EA502111F0FF050BD1B0B110466169FD
:10252000FFF770FA002861D0012832D0411C57D043
:102530006061A079400615D520680123594640788E
:10254000A269FFF7A4FCD8BB08E020690028EBD102
:1025500000211046FFF756FA2061E3E7A07920F04A
:102560004000A07161692068FFF72AFA88B100EB8A
:102570000508770A25D02068EA1981788A4200D9AF
:102580004F1BFBB2407842464946FFF780FCB8B982
:1025900004E0A07940F08000A071A5E7A169A1EB5B
:1025A0000800B8420AD209EB40214FF400725846A5
:1025B00000F0F2FBA07920F04000A0717D022BE03A
:1025C0000EE0A169414513D0D4E9020188420FD23F
:1025D00020680123424640785946FFF745FC38B150
:1025E000A07940F08000A07101207EE721E001E0A9
:1025F000C4F818802089C0F30800C0F50075B54202
:1026000000D9354620442A464946243000F0C4FB10
:10261000A07940F04000A071A068A9442844A060BF
:10262000DAF800004119761BCAF80010002E7FF47A
:1026300069AFD4E90201884200D9E060A07940F096
:102640002000A071002050E773B504460199087876
:102650002F2801D05C2801D1491C01910025A560DB
:1026600001980078202805D200212046FFF78CFB36
:1026700065617CBD01A92046FFF710FA0028F8D15A
:1026800000212046FFF780FBF8B92169206800F09F
:1026900092FBD0B961690A7872B1CA7A12070ED476
:1026A0000B23A26900255B1E08D311F8015B12F809
:1026B000016BAD1BF7D002E0042006E02DB1002134
:1026C0002046FFF7BDFA0028DFD0A169C97A28B1FA
:1026D0000428CED14907CCD405207CBD4907FCD4C1
:1026E0006069C17AC906F7D5818A408B61F31F40C2
:1026F000A060BFE704490A885206FCD5024AC1B26D
:10270000121D118070470000003801402DE9F04192
:102710000D460446022902D3A069A84202D801202E
:10272000BDE8F0812078012804D0022826D00328B3
:1027300037D12FE0206A05EB550600EB56212046E5
:1027400000F039FB68BBC6F308002044761C90F803
:102750003070206A00EB5621204600F02CFB00BBB5
:10276000C6F308002044E90790F8300047EA00204B
:1027700001D00009D4E7C0F30B00D1E7206A00EBD9
:102780001521204600F017FB58B9E8B204EB4000D1
:10279000008EC5E7206A00EBD511204600F00BFB48
:1027A00010B14FF0FF30BBE740F2FF1000EA8500A8
:1027B000204490F83010D0F8310041EA002020F099
:1027C0007040ADE7002070472DE9F05F0025DDE99E
:1027D0000BBA1F469046894606462C4660E0305D9F
:1027E0003A285BD1062D59D2DFE805F00312212CDF
:1027F0003B4A01253019427889F80020827889F80F
:102800000120C27889F80220017989F8031045E097
:1028100002253019427888F80020827888F8012053
:10282000C27888F80220017988F8031036E0032581
:1028300030194178397081787970C178B970007930
:10284000F8702BE0042530190A9942780A700A9929
:1028500082784A700A99C2788A7001790A98C170A0
:102860001CE00525301942788BF8002082788BF81F
:102870000120C2788BF8022001798BF803100DE05B
:102880000025301942788AF8002082788AF80120E1
:10289000C2788AF8022001798AF80310641CE4B235
:1028A0003046FDF761FCA04299D8BDE8F09F0000DA
:1028B0000EB5FEF70BFC4820FFF784F9FDF7C8FDC5
:1028C0004FF4E134204600F035FD204600F0DAFCFC
:1028D000FDF7A0FD00260127A14D4FF4FA7810E086
:1028E000A0A0FEF75BFDC5F8A07144464046FFF787
:1028F0007FF9A1A0FEF752FDC5F8A0612046FFF7C1
:1029000077F9FEF7FFF80028EAD19FA0FEF746FD11
:10291000A149A2A000F009FCA548A34AA3498DE85B
:102920000700A44BA44AA5499B48FFF74DFFA348C5
:10293000FDF721FCA24CE0609F48FDF71CFC2061E4
:10294000E0684FF6FF7900285AD0484500D1E6608C
:10295000E2689148521C9BA18030E260FEF72EFD98
:102960008D488030FDF700FCA0608B488030FDF77B
:10297000FBFB894903460022803188A0FEF7E2FB79
:1029800095A0FEF70BFD9CA0E168FEF707FD8248CD
:10299000A1A1A830E268FEF711FD89481430FDF7C7
:1029A000E3FB606086481430FDF7DEFB0346844994
:1029B000794800221431A830FEF7C4FB9CA0E168DE
:1029C000FEF7ECFC2069002856D0484500D126616E
:1029D00022697148521C9DA1D0302261FEF7EEFCA5
:1029E0006D48D030FDF7C0FB6B490346D0316BA07A
:1029F000A268FEF7A7FB9AA02169FEF7CFFC6AE068
:102A00009FA0FEF78BFBA1A0FEF7C8FCE26862481E
:102A1000521CA7A18030E260FEF7D0FC5E488030F7
:102A2000FDF7A2FBA0605C488030FDF79DFB5A4992
:102A300003460022803159A0FEF784FBA1A0E16883
:102A4000FEF7ACFC544874A1A830E268FEF7B6FC6F
:102A50005B481430FDF788FB606059481430FDF77F
:102A600083FB034656494C4800221431A830FEF738
:102A700069FB9DA0E168A3E7A4A0FEF74FFBA5A01A
:102A8000FEF78CFC22694448521C70A1D0302261B0
:102A9000FEF794FC4048D030FDF766FB3E49034604
:102AA000D0313EA0A268FEF74DFBA2A02169A4E7A9
:102AB00020780A283DD0401C2070C5F8A471C5F8C4
:102AC000A0713220FFF794F8C5F8A461C5F8A061A1
:102AD0003220FFF78DF8FDF7FBFC0028E8D14FF41A
:102AE00016714FF44870FDF7D9FD00F08DFAC5F866
:102AF000A461C5F8A06198A0FEF750FCB94641F268
:102B0000707A474600F066FC6188514521D16680A5
:102B1000FDF7F8FF98B1C5F8A0913846FFF768F8BF
:102B2000C5F8A0618FA0FEF739FC3846FFF760F8C2
:102B30000FE0267092A0FEF731FC6770CFE7607857
:102B400008B900F06DF992A0FEF728FC2069401C3E
:102B500020616088401C60800A20FFF749F8D1E7B7
:102B60000000224253442043617264204661696C34
:102B70006564210D0A000000506C65617365204397
:102B80006865636B210D0A00436865636B205344DD
:102B9000204F4B210D0A000064010020636F6E6618
:102BA00069672E696E6900002E010020290100204E
:102BB000240100201F0100201A010020150100201F
:102BC00000000020526561645F74696D65733A2589
:102BD00034640D0A0000000043726561746520636F
:102BE0006F6E6669672E696E6920737563636573BE
:102BF00073210D0A00000000437265617465205264
:102C00006561645F74696D65733A253464204F4B68
:102C100020210D0A00000000757365726461746103
:102C20002F25645F64617461732E63737600000006
:102C30004372656174652025645F64617461732EFD
:102C4000637376204F4B20210D0A000050686F748B
:102C50006F5F54696D65733A2534640D0A00000096
:102C60004372656174652050686F746F5F54696D5D
:102C700065733A253464204F4B20210D0A00000073
:102C800075736572646174610000000046495253B7
:102C90005420437265617465207573657264617454
:102CA000612073756363657373210D0A0000000072
:102CB000526561645F54696D65733A2534640D0A29
:102CC0000000000046495253542057726974652031
:102CD000526561645F54696D65733A253464206F91
:102CE0006B210D0A000000004649525354205772D0
:102CF0006974652075736572646174612F25645F02
:102D000064617461732E6373760D0A007069637475
:102D1000757265004649525354204372656174656B
:102D2000207069637475726520737563636573736E
:102D3000210D0A0046495253542057726974652088
:102D400050686F746F5F54696D65733A2534642001
:102D50004F4B210D0A000000537461727420210D45
:102D60000A000000436865636B205344204361728E
:102D700064204661696C656421210D0A0000000031
:102D80004F563236343020B4EDCEF3210D0A000018
:102D90004F4B0D0A0000000003E011F8013B00F862
:102DA000013B521EF9D27047C9B201E000F8011B85
:102DB000521EFBD270472DE9F041C56A0F4604460A
:102DC000BD422BD0217904F13008D9B160780123BC
:102DD0002A464146FFF75BF8E0B900202071D4E9AC
:102DE00007100844A8420DD9E67809E0E0690123FC
:102DF000054460782A464146FFF749F8761EF6B248
:102E0000012EF3D857B1607801233A464146FFF7C7
:102E10002BF810B10120BDE8F081E7620020FAE74D
:102E20002DE9F04100263446FDF718FC4FF41671E9
:102E30004FF44870FDF732FC0021FF20FDF7D8FD6C
:102E40001E21D320FDF7D4FD0121FF20FDF7D0FD89
:102E500001211120FDF7CCFD3E4D4FF00108C5F8D2
:102E6000A4813D483D4BD3F800110129FBD0D3F894
:102E700000110029FBD0761C0A2EF4D3384E3949B4
:102E8000D3F80021012A14D00027C5F8A4712146E7
:102E900035A0FEF783FA3348002617E0D0F820214A
:102EA000002AFBD0B2680A55D0F82021012AFBD0B5
:102EB000641CD3F80421002AE2D0EFE7815DFF29EA
:102EC00003D181194978D82902D0761CA642F5D3BE
:102ED000A64214D100244646C5F8A0613220FEF770
:102EE00087FEC5F8A4713220FEF782FE641CE4B2AE
:102EF000052CF1D3BDE8F04121A0FEF74FBAC5F88B
:102F0000A471254F851925A129483A68FEF756FA7C
:102F10002748FDF729F9034626482549026826A0D7
:102F2000FEF710F927A03968FEF738FA20482BA1E0
:102F300028303A68FEF742FA1D48A41B23460022B7
:102F400029462830FEF7FEF82146BDE8F04128A0CA
:102F5000FEF724BA000022420080214200002142F4
:102F6000001001405C0200206A7065672064617493
:102F7000612073697A653A202564200D0A000000FB
:102F8000C3BBD5D2B5BD305846462C305844382E38
:102F90002E2E2E2E2E0D0A001000002050686F7469
:102FA0006F5F54696D65733A2534640D0A00000043
:102FB000BCEC002008000020636F6E6669672E6914
:102FC0006E69000057726974652050686F746F7382
:102FD0003A253464204F4B210D0A00007069637458
:102FE0007572652F494D475F25642E6A7067000032
:102FF00070686F746F20646174612069733A202572
:1030000064200D0A0000000070B50F240A2500217D
:10301000FF20FDF7EDFC2946D320FDF7E9FC012157
:10302000FF20FDF7E5FC2146BDE870401120FDF7CB
:10303000DFBC2DE9F04716460D460446022902D3AF
:10304000A069A84202D80220BDE8F087207806F0E7
:10305000FF084FF00109012807D0022837D00328C4
:1030600046D0022084F80490EEE7206A05EB55076D
:1030700000EB57212046FFF79EFE0028F2D1C7F350
:10308000080020443030E90703D0017868F31F11AD
:1030900000E03146017084F80490206A7F1C00EB48
:1030A00057212046FFF787FE0028DBD1C7F3080130
:1030B00021443031EA0702D0C6F3071205E00A784E
:1030C000C6F3032302F0F0021A430A70CAE7206A2B
:1030D00000EB15212046FFF76EFE0028C2D1E9B2B1
:1030E00004EB4101320A81F8308081F83120B9E7E0
:1030F000206A00EBD5112046FFF75DFE0028B1D114
:1031000040F2FF1101EA850121444FF07043D1F8EC
:10311000312003EA0222324301F8302F130A4B70A8
:10312000130C8B70120ECA709CE730B5ADF25C4D7B
:103130000D46044689A90020FFF726F80122214602
:103140006846FFF731F80DF2544329466846039A62
:10315000FFF7C5F86846FEF7ABFE00210846FFF70B
:1031600013F80DF25C4D30BD2DE9F0410F460546D8
:10317000022918D3A869B84215D900264FF00108D2
:103180001DE039462846FFF7C1FA04001AD0012C89
:1031900009D0601C09D0002239462846FFF749FFB4
:1031A00006000FD103E002260CE001260AE02869A0
:1031B000411C03D0401C286185F805802746A8697A
:1031C000B842DED83046BDE8F0812DE9F041044632
:1031D0000021FFF7F0FD050050D12078032846D1EB
:1031E0006079F0B3002604F130004FF400723146EC
:1031F0000746E662FFF7D8FD552084F82E02AA2084
:1032000084F82F02522084F8300084F831006122C3
:1032100084F83220412084F83300722184F814129B
:1032200084F8151284F8160284F81722206984F8AD
:103230001802010A84F81912010C84F81A12000EFF
:1032400084F81B02E06884F81C02010A84F81D124D
:10325000010C000E84F81E1284F81F02607801230E
:1032600000E004E039466269FEF711FE6671002253
:1032700060781146FEF7D0FD00B101252846BDE873
:10328000F081000070B5054686B001210820FDF7E9
:103290003DFA01218804FDF72DFA01210846FDF7CA
:1032A00035FA4FF48060ADF8100003248DF8124019
:1032B00018201E4E8DF8130004A93046FDF756F86D
:1032C000F014ADF8100004208DF8130004A9304666
:1032D000FDF74CF827208DF814008DF815400121DA
:1032E0008DF816108DF8171005A8FDF7B5F8002019
:1032F000ADF80400ADF80600ADF80800ADF80C001C
:103300000C200B4CADF80A00009569462046FDF7ED
:10331000E9FF012240F225512046FDF7CAFF0121B5
:103320002046FDF79DFF06B070BD0000000C014077
:103330000048004070B5054686B0012144F2050002
:10334000FDF7E4F94FF40070ADF8100003248DF898
:10335000124018201D4E8DF8130004A93046FDF7C9
:1033600005F83015ADF8100004208DF8130004A9FD
:103370003046FCF7FBFF25208DF814008DF8154032
:103380008DF8164001208DF8170005A8FDF764F8A8
:103390000020ADF80400ADF80600ADF80800ADF867
:1033A0000C000C200A4CADF80A0000956946204636
:1033B000FDF798FF012240F225512046FDF779FFE5
:1033C00001212046FDF74CFF06B070BD000801400A
:1033D0000038014070B5284E4FF0000530880104D8
:1033E0002FD5C0F30D0425A0FDF7D8FFA01EC1B254
:1033F0002748FEF7F1FA264B191931F8022C52BA78
:1034000090420BD10D2001F8020D0A2048701D5585
:10341000FDF778FB20B11FA0FDF7C0FF358070BD20
:1034200024A0FDF7BBFF2346294C194929482268EF
:10343000FDF788FE1648FCF797FE216808442060D7
:10344000ECE7254C2078322812D1FDF75BFB2349AD
:1034500058B1D1F8A00130B10020C1F8A00120A0DE
:10346000FDF79CFF03E00120F7E7C1F8A0512570AC
:103470002078401C207070BD3401002052656365C7
:103480006976652044617461204F4B0D0A0000008D
:103490000CED002053442043617264204661696C46
:1034A00065642120506C6561736520436865636BBA
:1034B000210D0A005772697465206461746120747B
:1034C0006F20457863656C204F4B2121210D0A0048
:1034D000040000200C020020140100200000224201
:1034E000436865636B2053442043617264204661E6
:1034F000696C656421210D0A0000000010B520B13F
:10350000027812B1C2888A4201D0092010BD4078E9
:10351000FEF7BBFCC007F9D0032010BD00C18140FD
:1035200001C0804101C0804100C1814001C0804193
:1035300000C1814000C1814001C0804101C0804183
:1035400000C1814000C1814001C0804100C1814073
:1035500001C0804101C0804100C1814001C0804163
:1035600000C1814000C1814001C0804100C1814053
:1035700001C0804101C0804100C1814000C1814043
:1035800001C0804101C0804100C1814001C0804133
:1035900000C1814000C1814001C0804101C0804123
:1035A00000C1814000C1814001C0804100C1814013
:1035B00001C0804101C0804100C1814000C1814003
:1035C00001C0804101C0804100C1814001C08041F3
:1035D00000C1814000C1814001C0804100C18140E3
:1035E00001C0804101C0804100C1814001C08041D3
:1035F00000C1814000C1814001C0804101C08041C3
:1036000000C1814000C1814001C0804100C18140B2
:1036100001C0804101C0804100C1814000C0C101A2
:10362000C30302C2C60607C705C5C404CC0C0DCD32
:103630000FCFCE0E0ACACB0BC90908C8D81819D9A2
:103640001BDBDA1A1EDEDF1FDD1D1CDC14D4D515D2
:10365000D71716D6D21213D311D1D010F03031F1C2
:1036600033F3F23236F6F737F53534F43CFCFD3DF2
:10367000FF3F3EFEFA3A3BFB39F9F83828E8E929E2
:10368000EB2B2AEAEE2E2FEF2DEDEC2CE42425E592
:1036900027E7E62622E2E323E12120E0A06061A102
:1036A00063A3A26266A6A767A56564A46CACAD6DB2
:1036B000AF6F6EAEAA6A6BAB69A9A86878B8B97922
:1036C000BB7B7ABABE7E7FBF7DBDBC7CB47475B552
:1036D00077B7B67672B2B373B17170B05090915142
:1036E0009353529296565797559594549C5C5D9D72
:1036F0005F9F9E5E5A9A9B5B995958988848498962
:103700004B8B8A4A4E8E8F4F8D4D4C8C4484854511
:10371000874746868242438341818040FF002CFFD9
:103720002EDFFF013C321100090204D813E51448D2
:103730002C0C33783A333BFB3E0043111610399280
:1037400035DA221A37C3230034C0361A068807C078
:103750000D870E414C0048005B0042034A812199CD
:103760002440253826825C00630046000C3C6170D2
:1037700062807C05208028306C006D806E007002B5
:10378000719473C13D345A571200171118751901FD
:103790001A973236030F37404FCA50A85A236D008C
:1037A0006D38FF00E57FF9C04124E01476FF33A0B7
:1037B000422043184C0087D5883FD703D910D382C5
:1037C000C808C9807C007D007C037D487D487C085A
:1037D0007D207D107D0E9000910E911A9131915AAD
:1037E00091699175917E9188918F919691A391AFF6
:1037F00091C491D791E891209200930693E39305A9
:103800009305930093049300930093009300930017
:10381000930093009600970897199702970C9724A6
:103820009730972897269702979897809700970048
:10383000C3EFA400A800C511C651BF80C710B6666B
:10384000B8A5B764B97CB3AFB497B5FFB0C5B194B0
:10385000B20FC45CC0C8C1968C00863D5000519028
:10386000522C5300540055885A905B2C5C05D302AF
:10387000C3ED7F00DA09E51FE167E000DD7F0500A9
:10388000FF00DA10D703DF0033803C40E17700000F
:10389000FF01E014E177E51FD703DA10E000FF0035
:1038A000DA09D703DF0233A03C00E167FF01E00043
:1038B000E100E500D700DA00E000FF012420251830
:1038C0002660FF012434251C2600FF01243E2538F4
:1038D0002681FF01244825402681FF0124582550D8
:1038E00026920040404040404040404041414141DC
:1038F00041404040404040404040404040404040C7
:1039000040404005020202020202020202020202DA
:10391000020202202020202020202020200202025B
:1039200002020202909090909090101010101010CF
:1039300010101010101010101010101010100202A3
:10394000020202028888888888880808080808080F
:1039500008080808080808080808080808080202F3
:1039600002024000E3380008883900080000002007
:103970006401000012030008283A000864010020D6
:10398000FCF70000FC130008011428534265657021
:103990002C4C696768742C536572766F2C48617281
:1039A0006D66756C6761732C556C74726176696FA6
:1039B0006C65742C54656D70657261747572652CDC
:1039C00048756D69646974792C0950686F746F6308
:1039D0006F6E647563746F722C5072657373224FCF
:1039E0004779726F5F78074A790718087A2C416324
:1039F00063656C1649085A79081E7A2C4D61671662
:103A00001A6D063A790C000E987A2C4C6F6E672C62
:103A10004C6174690D0A45020406082D0102030475
:083A2000044506070809000037
:0400000508000131BD
:00000001FF
