:020000040800F2
:100000001009002011390008B9030008BB030008DB
:10001000BF030008C3030008C70300080000000076
:10002000000000000000000000000000CB030008FA
:10003000CD03000800000000CF030008D103000832
:10004000850700082B3900082B3900082B390008D8
:100050002B3900082B390008A71D00085F2600086F
:100060002B3900082B3900082B3900082B390008E0
:100070002B3900082B3900082B3900082B390008D0
:100080002B3900082B3900082B3900082B390008C0
:100090002B3900082B3900082B3900082B390008B0
:1000A0002B3900082B3900082B3900082B390008A0
:1000B0002B3900080B0800082B3900082B390008E1
:1000C0002B3900082B3900082B3900082B39000880
:1000D0002B390008873800082B3900082B39000815
:1000E0002B3900082B3900082B39000800F002F8E2
:1000F00000F03FF80AA090E8000C82448344AAF183
:100100000107DA4501D100F034F8AFF2090EBAE880
:100110000F0013F0010F18BFFB1A43F0010318473B
:10012000686F0000886F0000103A24BF78C878C15B
:10013000FAD8520724BF30C830C144BF04680C60ED
:10014000704700000023002400250026103A28BF35
:1001500078C1FBD8520728BF30C148BF0B60704739
:10016000782905F01584002070471FB51FBD10B514
:1001700010BD05F0D7FC1146FFF7F7FF00F008F8B7
:1001800005F0F5FC03B4FFF7F2FF03BC03F020FB1E
:1001900008B5002500F08DF9482003F0BDFA03F002
:1001A00011FB4FF4165003F022FB00F003FA00F0AD
:1001B00033FA00F051FC4FF478404149088041A2E5
:1001C00032213C2001F087FD41A246213C2001F074
:1001D00082FD43A25A213C2001F07DFD44A26E2104
:1001E0003C2001F078FD19E044A282213C2001F07E
:1001F00072FD4FF4FA7003F0A9FA44A282213C2068
:1002000001F069FD4FF4FA7003F0A0FA4448006869
:1002100008B9012000E000204149086003F034F9EA
:100220000028E1D13FA282213C2001F054FD03F0DF
:10023000CBF80446214640A005F06AFB43A2962174
:100240003C2001F048FD1020220B04239621009051
:10025000A42001F0C8FC31E01E2D22D10122002192
:100260003F4803F0D9F900281AD13EA2AA213C2028
:1002700001F031FD41A005F04BFB002405E03848BA
:10028000015D42A005F044FB641CB4F5007FF6D389
:100290003FA005F03DFB42A2AA213C2001F01BFD3E
:1002A0000025681CC5B2C82003F050FA1C4800683D
:1002B00008B9012000E0002019490860CCE70000DF
:1002C000160000204D696E692053544D33320000F2
:1002D000534420436172642054455354000000008D
:1002E00041544F4D40414C49454E54454B00000050
:1002F000323031312F312F31000000005344204380
:10030000617264204661696C65642100506C6561AE
:10031000736520436865636B212020202020200026
:10032000A001214253442043617264204368656305
:100330006B6564204F4B2000205344205365637449
:100340006F722053697A653A25780A005344204336
:100350006172642053697A653A202020204D620042
:10036000400000205553415254312053656E64695A
:100370006E6720446174612E2E2E00005345435455
:100380004F52203020444154413A0A002578200041
:100390000A4441544120454E4445440A00000000AF
:1003A0005553415254312053656E64204461746149
:1003B000204F766572210000704700BFFEE700BF46
:1003C000FEE700BFFEE700BFFEE7704770477047DB
:1003D000704700000CB50020019000906C48006848
:1003E00040F480306A49086000BF6948006800F442
:1003F000003000900198401C0190009818B90198B5
:10040000B0F5A06FF1D16248006800F4003010B17F
:100410000120009001E0002000900098012843D1C5
:100420005C48006840F010005A49086008460068BF
:1004300020F0030008600846006840F002000860F1
:10044000534840685249486008464068486008463A
:10045000406840F4806048600846406820F47C10A2
:1004600048600846406840F4E81048600846006864
:1004700040F08070086000BF4548006800F00070E0
:100480000028F9D04248406820F003004049486005
:100490000846406840F00200486000BF3C484068A1
:1004A00000F00C000828F9D10CBD10B5FFF792FF41
:1004B00010BD10B53648006840F0010034490860AE
:1004C0000846406834490840314948600846006899
:1004D000324908402E4908600846006820F4802010
:1004E00008600846406820F4FE0048604FF41F0092
:1004F0008860FFF7DAFF4FF000602949086010BDFF
:1005000010B5002100200022214B5B6803F00C0194
:1005100021B1042906D0082928D107E0214B224C1B
:10052000236027E01F4B204C236023E0184B5B68BF
:1005300003F47010164B5B6803F48032022303EB64
:10054000904022B9194B4343174C23600DE0104BE8
:100550005B6803F4003323B1144B4343124C236014
:1005600003E0104B4343104C236003E00D4B0E4C53
:10057000236000BF00BF064B5B68C3F303130C4C42
:10058000E15C094B1B68CB40074C236010BD0000A9
:1005900000100240002002400000FFF8FFFFF6FEBE
:1005A00008ED00E000127A000000002000093D0084
:1005B0000400002008B50121042003F067FE4FF479
:1005C0008070ADF8000010208DF8030003208DF836
:1005D000020069460E4803F017FB4FF480710C4887
:1005E00003F0BFFB0121202003F050FE0420ADF8F2
:1005F000000010208DF8030003208DF802006946EA
:10060000044803F001FB0421024803F0AAFB08BDE3
:10061000000801400014014008B50121042003F046
:1006200035FE4FF42040ADF8000048208DF803005F
:1006300069462E4803F0E8FA0120ADF800002820B2
:100640008DF803006946294803F0DEFA08BD10B5AD
:100650000121274803F0A9FB2648007878B32648F3
:10066000006840B124480830006820B1224834387E
:100670000068012824D10A2003F068F800201D49F1
:1006800008701D48006828B901211C4803F08DFB43
:10069000012010BD18480830006828B9012117480A
:1006A00003F083FB0220F4E7134834380068012884
:1006B00016D10121114803F078FB0320E9E7FFE799
:1006C0000D48006801280BD10B480830006801284C
:1006D00006D109483438006810B90120054908706E
:1006E0000121064803F061FB0020D2E70008014029
:1006F00000043000140000203401214200023000C8
:1007000070B505460C4645F2555003F0CBFB284624
:1007100003F0CBFB204603F0CBFB03F0CCFB03F054
:10072000CFFB70BD10B503F0C6FB10BD08B50020AF
:100730008DF8000002208DF8010003208DF80200E2
:10074000684603F00AF908BD70B506460C46154622
:100750000121C80203F0A7FD284605F09EF82046B7
:1007600005F0A4F8304605F0BCF805F0C5F8FFF731
:10077000DDFF05F0ACF870BD10B50446204605F06D
:10078000B0F810BD10B57F2005F0A5F805F0B4F85D
:100790000448006808B9012000E000200149086011
:1007A00010BD0000888122427FB504460D4601211C
:1007B000022003F078FD41F28830ADF8080041F6E0
:1007C0001F40ADF804000020ADF80A00ADF80600A7
:1007D00001A9174804F018F801224121144804F037
:1007E0008AFB1D208DF8000000208DF801000320F9
:1007F0008DF8020001208DF80300684603F0ADF883
:1008000001210B4804F05CFB7FBD10B501210848B5
:1008100004F01FFE58B10121054804F02BFE0548E5
:10082000006808B9012000E000200249086010BDFE
:1008300000040040888122424FF48071FE4A5161D9
:1008400049005161FD4908608021516111618900B1
:100850001161704710B504460B462046FFF7ECFFC8
:100860004FF48070F449086140004861F348036028
:100870008020486108618000086110BD70B50446A1
:100880002046FFF7D9FF4FF08830EC490C3908605B
:10089000091D08604FF6FF70E84908608815E649B1
:1008A00008614000486140204861052002F06AFF6D
:1008B0004020E1490861E148001F006885B2481501
:1008C00008614FF03330DD490C390860091D0860BC
:1008D0004FF6FF70D9490860284670BD00B5222048
:1008E000FFF7AAFF00BD4FF48071D34A11614900A0
:1008F0005161D24908608021516111618900116103
:10090000704730B5014601F01F04C1F34513CA0A10
:10091000E50205EB43151544A8B230BD70B5044699
:100920000D46F02C02DAB5F5A07F01DB002070BD8A
:100930002946204605F022F92220FFF77DFF4FF0DF
:100940008830BE490C390860091D08604FF6FF70F9
:10095000BA4908608815B8490861400048614020DC
:1009600048610861022002F00DFF4020B249486151
:10097000022002F007FF4020AF490861AF48001F86
:10098000006886B2481508614FF03330AB490C3926
:100990000860091D08604FF6FF70A8490860A84864
:1009A000008844F2315188420BD0A548008848F6AF
:1009B0008911884205D0A24800884BF2055188422F
:1009C00001D13046B3E73046FFF79BFFAFE700B5F4
:1009D00040F273110720FFF73DFF00BD00B5002175
:1009E0000720FFF737FF00BD70B504460D462946C6
:1009F000204605F0C3F82220FFF71EFF4FF4807059
:100A00008D490861400048618E4800888B49086024
:100A100080208949486108618000086170BD70B517
:100A2000044600250021084605F0A8F8FFF756FF08
:100A300000BF0DE04FF480707F49086140004861BD
:100A40007E480460802048610861800008616D1C58
:100A5000B5F5963FEED370BD08B50121192003F01E
:100A600015FC0121784803F0A0F94FF4F860ADF8C7
:100A7000000010208DF8030003208DF80200694665
:100A80006D4803F0C1F84FF4F8616B4803F069F961
:100A90004FF6FF70ADF80000694668480C3803F067
:100AA000B3F84FF6FF7165480C3803F05AF932205D
:100AB00002F04CFE01210020FFF7CCFE322002F0B4
:100AC00045FE0020FFF7DAFE5D49088008460188F0
:100AD0005EA004F01DFF5A48008849F22531884283
:100AE00004D057480088C91C88427DD141F28F014B
:100AF000EC20FFF7AFFE41F23421EF20FFF7AAFE12
:100B00004FF480710120FFF7A5FE4FF4E061022051
:100B1000FFF7A0FE4FF480710120FFF79BFE4FF41A
:100B2000E0610220FFF796FE41F230010320FFF75B
:100B300091FE00210420FFF78DFE40F207210820DE
:100B4000FFF788FE00210920FFF784FE00210A201C
:100B5000FFF780FE01210C20FFF77CFE00210D2015
:100B6000FFF778FE00210F20FFF774FE0021102010
:100B7000FFF770FE07211120FFF76CFE0021122005
:100B8000FFF768FE00211320FFF764FE322002F019
:100B9000DDFD41F290511020FFF75CFE40F227216D
:100BA0001120FFF757FE322002F0D0FD9C211220C9
:100BB000FFF750FE322002F0C9FD4FF4C851132058
:100BC000FFF748FE23212920FFF744FE0E212B20AA
:100BD000FFF740FE322002F0B9FD00212020FFF790
:100BE00039FE40F23F1100E08CE02120FFF732FE99
:100BF000322002F0ABFD07213020FFF72BFE40F240
:100C000007713120FFF726FE06213220FFF722FE72
:100C100040F204713520FFF71DFE41F604713620C5
:100C2000FFF718FE04213720FFF714FE00213820BB
:100C3000FFF710FE10E00000001001400C0C014016
:100C40001A0000201600002000023000204C43440F
:100C50002049443A25780A0040F206713920FFF70E
:100C6000F9FD40F201713C20FFF7F4FD0F213D201A
:100C7000FFF7F0FD322002F069FD00215020FFF760
:100C8000E9FDEF215120FFF7E5FD00215220FFF79C
:100C9000E1FD40F23F115320FFF7DCFD4FF4274107
:100CA0006020FFF7D7FD01216120FFF7D3FD002170
:100CB0006A20FFF7CFFD00218020FFF7CBFD002148
:100CC0008120FFF7C7FD00218220FFF7C3FD00212F
:100CD0008320FFF7BFFD00218420FFF7BBFD00212B
:100CE0008520FFF7B7FD10219020FFF7B3FD4FF4EB
:100CF000C0619220FFF7AEFD40F233110720FFF7ED
:100D0000A9FD7FE2FE48008849F22031884204D0E4
:100D1000FB480088B0F5134F7ED100210846FFF74D
:100D200099FD4FF480710120FFF794FD4FF4E061CD
:100D30000220FFF78FFD41F230010320FFF78AFD0B
:100D400000210420FFF786FD40F202210820FFF772
:100D500081FD00210920FFF77DFD00210A20FFF71A
:100D600079FD01210C20FFF775FD00210D20FFF713
:100D700071FD00210F20FFF76DFD322002F0E6FC2F
:100D800040F201110720FFF765FD322002F0DEFC82
:100D90004FF486511020FFF75DFD07211120FFF76A
:100DA00059FD4FF488711220FFF754FD4FF4306164
:100DB0001320FFF74FFD00212920FFF74BFD44F2E0
:100DC00010012B20FFF746FD00215020FFF742FDC8
:100DD000EF215120FFF73EFD00215220FFF73AFDA1
:100DE00040F23F115320FFF735FD4FF41C516020B6
:100DF000FFF730FD01216120FFF72CFD00216A2063
:100E0000FFF728FD00218020FFF724FD002181202D
:100E1000FFF720FD002100E02DE08220FFF71AFD02
:100E200000218320FFF716FD00218420FFF712FD2B
:100E300000218520FFF70EFD10219020FFF70AFD0D
:100E400000219220FFF706FD01219320FFF702FD0C
:100E50004FF488719520FFF7FDFC00219720FFF7E4
:100E6000F9FC00219820FFF7F5FC40F273110720F0
:100E7000FFF7F0FC45E7A248008845F208418842A8
:100E80007ED14FF480710120FFF7E4FC4FF4E06164
:100E90000220FFF7DFFC41F230010320FFF7DAFC0C
:100EA00000210420FFF7D6FC40F207210820FFF7BD
:100EB000D1FC00210920FFF7CDFC00210A20FFF71B
:100EC000C9FC00210C20FFF7C5FC00210D20FFF715
:100ED000C1FC00210F20FFF7BDFC142002F036FCFE
:100EE00041F2B0611020FFF7B5FC01211120FFF79E
:100EF000B1FC01211720FFF7ADFC4FF49C711220CB
:100F0000FFF7A8FC4FF400611320FFF7A3FC0921B1
:100F10002920FFF79FFC09212A20FFF79BFC0021D5
:100F2000A420FFF797FC00215020FFF793FCEF214E
:100F30005120FFF78FFC00215220FFF78BFC40F27D
:100F40003F115320FFF786FC4FF41C516020FFF740
:100F500081FC01216120FFF77DFC00216A20FFF761
:100F600079FC00218020FFF775FC00218120FFF72C
:100F700071FC00218220FFF76DFC0021832000E03E
:100F800023E0FFF767FC00218420FFF763FC0021CA
:100F90008520FFF75FFC13219020FFF75BFC002109
:100FA0009220FFF757FC03219320FFF753FC4FF4E7
:100FB00088719520FFF74EFC40F273110720FFF770
:100FC00049FC322002F0C2FB9BE64D48008841F20A
:100FD000055188427ED100210720FFF73BFC3220DB
:100FE00002F0B4FB4FF48E711220FFF733FC0121A5
:100FF000A420FFF72FFC0F210820FFF72BFC08216E
:101000000A20FFF727FC08210D20FFF723FC40F200
:1010100007713020FFF71EFC07213120FFF71AFC73
:1010200040F203613220FFF715FC4FF4E0613320FA
:10103000FFF710FC40F202213420FFF70BFC0221E5
:101040003520FFF707FC41F60F713620FFF702FC51
:1010500040F207713720FFF7FDFB00213820FFF732
:10106000F9FB00213920FFF7F5FB40F207713A2028
:10107000FFF7F0FB00213B20FFF7ECFB07213C20B2
:10108000FFF7E8FB00213D20FFF7E4FB322002F0F0
:101090005DFB01210720FFF7DDFB01211720FFF792
:1010A000D9FB322002F052FB4FF4BD511020FFF764
:1010B000D1FB40F217211120FFF7CCFB4FF48F71C9
:1010C0001220FFF7C7FB4FF470611320FFF7C2FB3C
:1010D000002100E097E02A20FFF7BCFB0A2129202D
:1010E000FFF7B8FB4FF49F711220FFF7B3FB00210D
:1010F0005020FFF7AFFBEF215120FFF7ABFB01E0E2
:101100001A00002000215220FFF7A4FB40F23F11FB
:101110005320FFF79FFB4FF41C516020FFF79AFB11
:1011200001216120FFF796FB00216A20FFF792FB67
:1011300000218020FFF78EFB00218120FFF78AFB32
:1011400000218220FFF786FB00218320FFF782FB2E
:1011500000218420FFF77EFB00218520FFF77AFB2A
:1011600013219020FFF776FB4FF440719220FFF798
:1011700071FB05219320FFF76DFB00219520FFF700
:1011800069FB00219720FFF765FB00219820FFF7FE
:1011900061FB4FF480710120FFF75CFB4FF4E061CD
:1011A0000220FFF757FB41F230010320FFF752FB0B
:1011B00000210420FFF74EFB00210C20FFF74AFB23
:1011C00000210F20FFF746FB00212020FFF742FB04
:1011D00000212120FFF73EFB21210720FFF73AFBEA
:1011E000142002F0B3FA61210720FFF733FB14202B
:1011F00002F0ACFA40F273110720FFF72BFB14202A
:1012000002F0A4FA47E3FE4800884BF205518842F9
:101210007ED100210846FFF71DFB00210846FFF79D
:1012200019FB00210846FFF715FB00210846FFF7D0
:1012300011FB0121A420FFF70DFB142002F086FA18
:101240004FF41C516020FFF705FB40F202210820FB
:10125000FFF700FB4FF405713020FFF7FBFA43F274
:1012600015713120FFF7F6FA40F204613220FFF7E2
:10127000F1FA40F616613320FFF7ECFA42F2112141
:101280003420FFF7E7FA4FF4A8513520FFF7E2FAD0
:1012900048F207513620FFF7DDFA41F207413720C7
:1012A000FFF7D8FA41F203413820FFF7D3FA2021A3
:1012B0003920FFF7CFFA1A219020FFF7CBFA00214F
:1012C0001020FFF7C7FA07211120FFF7C3FA00210A
:1012D0001220FFF7BFFA00211320FFF7BBFA1420FA
:1012E00002F034FA4FF4E6611020FFF7B3FA40F24F
:1012F00037111120FFF7AEFA142002F027FA4FF44D
:10130000DC711220FFF7A6FA142002F01FFA00E0A9
:1013100083E04FF470611320FFF79CFA80212A20AC
:10132000FFF798FA48212920FFF794FA142002F0D9
:101330000DFA4FF480710120FFF78CFA4FF4E06151
:101340000220FFF787FA41F230210320FFF782FAEB
:1013500040F202210820FFF77DFA00210A20FFF762
:1013600079FA00210C20FFF775FA00210D20FFF714
:1013700071FA30210E20FFF76DFA00215020FFF79F
:1013800069FAEF215120FFF765FA00215220FFF79B
:1013900061FA40F23F115320FFF75CFA4FF41C5101
:1013A0006020FFF757FA01216120FFF753FA00216F
:1013B0006A20FFF74FFA11219020FFF74BFA4FF404
:1013C000C0619220FFF746FA40F202419320FFF7F6
:1013D00041FA02219420FFF73DFA142002F0B6F9F9
:1013E00001210720FFF736FA142002F0AFF961213E
:1013F0000720FFF72FFA40F273110720FFF72AFAB0
:1014000000212020FFF726FA00212120FFF722FAF1
:1014100022210020FFF71EFA3DE27948008848F6B5
:10142000891188427DD101210020FFF713FA4AF685
:10143000A4010320FFF70EFA00210C20FFF70AFA9F
:1014400040F60C010D20FFF705FA4FF42C510E2049
:10145000FFF700FAB0211E20FFF7FCF942F63F31FA
:101460000120FFF7F7F94FF4C0610220FFF7F2F90E
:1014700000211020FFF7EEF946F270011120FFF76E
:10148000E9F900210520FFF7E5F900210620FFF723
:10149000E1F94EF61C711620FFF7DCF90321172045
:1014A000FFF7D8F940F233210720FFF7D3F90021E5
:1014B0000B20FFF7CFF900210F20FFF7CBF9002118
:1014C0004120FFF7C7F900214220FFF7C3F90021AF
:1014D0004820FFF7BFF940F23F114920FFF7BAF962
:1014E00000214A20FFF7B6F900214B20FFF7B2F99F
:1014F0004FF46F414420FFF7ADF900214520FFF77D
:10150000A9F940F23F114620FFF7A4F940F2077114
:101510003020FFF79FF94FF401713120FFF79AF95E
:1015200000E03DE04FF401713220FFF793F940F203
:1015300002513320FFF78EF940F207513420FFF7B4
:1015400089F94FF401713520FFF784F94FF40171E7
:101550003620FFF77FF940F202513720FFF77AF982
:1015600040F202313A20FFF775F940F202313B2098
:10157000FFF770F900212320FFF76CF900212420E8
:10158000FFF768F94FF400412520FFF763F90021C8
:101590004F20FFF75FF900214E20FFF75BF97AE15A
:1015A0001748008844F2315188427DD10121002042
:1015B000FFF750F90A2002F0C9F841F22861102023
:1015C000FFF748F90E211220FFF744F940F63921C0
:1015D0001320FFF73FF90A2002F0B8F8402111204C
:1015E000FFF738F950211520FFF734F90A2002F0EF
:1015F000ADF81E211220FFF72DF90A2002E00000AD
:101600001A00002002F0A2F84FF4B1511020FFF7A9
:1016100021F942F639211320FFF71CF90A2002F0C4
:1016200095F84FF480710120FFF714F94FF44071E1
:101630000220FFF70FF941F230010320FFF70AF90A
:1016400040F202210820FFF705F908210A20FFF7E0
:1016500001F900213020FFF7FDF840F2024131206E
:10166000FFF7F8F84FF483713220FFF7F3F840F2F8
:1016700003513320FFF7EEF84FF482713420FFF767
:10168000E9F840F201313520FFF7E4F840F2077144
:101690003620FFF7DFF840F205313720FFF7DAF8A0
:1016A0004FF40271382000E040E0FFF7D3F840F635
:1016B0000B713920FFF7CEF802214120FFF7CAF85D
:1016C0004FF41C516020FFF7C5F801216120FFF79E
:1016D000C1F84FF404719020FFF7BCF84FF4857106
:1016E0009220FFF7B7F804219320FFF7B3F84FF4E7
:1016F0008071A020FFF7AEF801210720FFF7AAF8BC
:1017000021210720FFF7A6F823210720FFF7A2F8E1
:1017100033210720FFF79EF840F233110720FFF72F
:1017200099F80021A020FFF795F8B4E0F848008868
:1017300044F235518842F8D130211520FFF78AF85C
:1017400010219A20FFF786F820211120FFF782F858
:1017500043F228411020FFF77DF802211220FFF705
:1017600079F841F238011320FFF774F8282001F0CE
:10177000EDFF12210846FFF76DF8282001F0E6FF83
:1017800043F220411020FFF765F843F2380113209F
:10179000FFF760F8462001F0D9FF00213020FFF765
:1017A00059F840F202413120FFF754F840F2073176
:1017B0003220FFF74FF84FF441713320FFF74AF81A
:1017C00004213420FFF746F840F201413520FFF7AD
:1017D00041F840F207713620FFF73CF840F205313E
:1017E0003720FFF737F84FF4C2613820FFF732F89F
:1017F0004FF4C2613920FFF72DF84FF480710120BA
:10180000FFF728F84FF440710220FFF723F841F268
:1018100030010320FFF71EF840F608010820FFF70B
:1018200019F808210A20FFF715F84FF41C51602021
:10183000FFF710F801216120FFF70CF84FF49F71BA
:101840009020FFF707F84FF480719220FFF702F81D
:101850004FF480719320FEF7FDFF4FF44051A0201C
:10186000FEF7F8FF1021A320FEF7F4FF0121072067
:10187000FEF7F0FF21210720FEF7ECFF23210720D0
:10188000FEF7E8FF33210720FEF7E4FF40F23311B3
:101890000720FEF7DFFF01209E4908604FF6FF702A
:1018A000FFF7BDF808BD2DE9F05F05460E46174667
:1018B0009846DDF828A04FF0000B781B401C1FFA5B
:1018C00080FB34461EE02146284604F057F9FFF716
:1018D00005F84FF0000911E04FF480708E4908615F
:1018E000400048618D48C0F800A080204861086130
:1018F0008000086109F101001FFA80F9D945EBDB8E
:10190000601C84B24445DEDDBDE8F09F2DE9FF4F49
:1019100085B081468A460020049003900798A0EB8A
:1019200009050898A0EB0A06CDF80890CDF804A0A8
:10193000002D01DD012705E00DB9002702E04FF081
:10194000FF376D42002E02DD4FF0010806E016B9A8
:101950004FF0000802E04FF0FF387642B54201DD5B
:101960002C4600E034464FF0000B21E0019A91B282
:10197000029A90B2FFF738F804982844049003982C
:10198000304403900498A04205DD0498001B0490A5
:101990000298384402900398A04205DD0398001B8A
:1019A00003900198404401900BF101001FFA80FB65
:1019B000601C8345DADD09B0BDE8F08F2DE9F04108
:1019C00004460D4616461F462B46324629462046FB
:1019D000FFF79CFF3B46224629462046FFF796FF2D
:1019E0003B46324639462046FFF790FF3B4632469B
:1019F00029463046FFF78AFFBDE8F0812DE9F04720
:101A000006460F469046002445460320A0EB4809B1
:101A100048E03A1B91B2721B90B2FEF7E5FF3A1B09
:101A200091B2721990B2FEF7DFFF7A1991B2321BB0
:101A300090B2FEF7D9FF3A1B91B2721B90B2FEF73B
:101A4000D3FF7A1B91B2321B90B2FEF7CDFF3A1949
:101A500091B2721990B2FEF7C7FF7A1B91B2321998
:101A600090B2FEF7C1FF7A1991B2321990B2FEF727
:101A7000BBFF3A1991B2721B90B2FEF7B5FF641C1E
:101A8000B9F1000F03DAA000801D814404E0601B5F
:101A900080000A3081446D1E7A1991B2321990B2D9
:101AA000FEF7A2FFAC42B4DDBDE8F0872DE9F84FA8
:101AB0000746894616461D46BB46194800880090D1
:101AC000E82F02DCB9F59C7F01DDBDE8F88FA6F1B7
:101AD0002000C6B20A98002847D1002442E00C2D0D
:101AE00007D106EB46000F4901EB800010F804A077
:101AF00004E00D4800EB061010F804A04FF00008B9
:101B000024E00AF0010088B105490098088011E03E
:101B10001A000020A8012242001001400C0C0140D4
:101B200016000020FA6500086E6A00087C480088EC
:101B30007C49088049463846FEF756FF4FEA6A0A54
:101B4000781C87B208F1010000F0FF0805EBD571A1
:101B5000B8EB610FD5DB5F4609F101001FFA80F990
:101B6000601CC4B2AC42BADB2DE0002429E00C2D8D
:101B700007D106EB46006C4901EB800010F804A089
:101B800004E06A4800EB061010F804A04FF00008CB
:101B900010E00AF0010038B109EB040291B207EB42
:101BA000080290B2FEF720FF4FEA6A0A08F101002E
:101BB00000F0FF0805EBD571B8EB610FE9DB601CA5
:101BC000C4B2AC42D3DB57490098088000BF7CE721
:101BD00010B50246012000E050430B00A1F10104C2
:101BE000E1B2F9D110BD2DE9FF4F81B00746914612
:101BF0001E460E9D4FF0000A002439E0301B401EA7
:101C0000C1B20A20FFF7E4FFB9FBF0F00A21B0FBF4
:101C1000F1F201FB1208BAF1000F16D1701EA042BA
:101C200013DDB8F1000F0ED10020AB4605EBDB71E0
:101C3000491001FB0471009088B22B4620220299C2
:101C4000FFF734FF12E04FF0010A0020AB4605EB2E
:101C5000DB71491001FB0471009088B208F130017A
:101C6000CAB22B460299FFF721FF00BF601CC4B225
:101C7000B442C3DB05B0BDE8F08F2DE9FF4F81B062
:101C8000074690461D46DDE90E6A00241EE0281B2B
:101C9000401EC1B20A20FFF79BFFB8FBF0F00A21FB
:101CA000B0FBF1F201FB1209B34606EBDB71491000
:101CB00001FB047188B209F13001CAB23346CDF894
:101CC00000A00299FFF7F2FE601CC4B2AC42DEDB5A
:101CD00005B0BDE8F08FF8B505460E4614461BE08A
:101CE000E82D03DD002506F1100086B2B6F59C7FD5
:101CF00006DD0020054606464FF6FF70FEF78FFE14
:101D0000002000902278102331462846FFF7CEFEAF
:101D100005F1080085B2641C20780028E0D1F8BDE8
:101D20001800002016000020FA6500086E6A0008FE
:101D300010B50121042001F049FE0121080702F03D
:101D4000B2FA012002F0E8F802F005F910BD10B572
:101D500000214FF4FE7002F0B3FAFFF7E9FF10BD67
:101D600070B50025002400202E4908601AE02D4897
:101D7000A038006818B1681CC5B2002408E0601CD7
:101D8000C4B2032C04DD012026490860002070BD88
:101D90001E2001F0DBFC642D04DB002021490860DB
:101DA0000120F4E7E3E710B501201F490860FFF7C1
:101DB000D7FF08B1FFF7CBFF10BD1FB501210520EC
:101DC00002F064FA0120ADF80C0028208DF80F0015
:101DD00003A9164801F018FF0021084602F02AF86E
:101DE0000120009000208DF8040008208DF80500E7
:101DF00001208DF80600684601F026FE06208DF8C9
:101E0000080002208DF809008DF80A0001208DF8E5
:101E10000B0002A801F0A1FDFFF7A2FF08B9FFF730
:101E200087FF1FBDA00121421404014000080140AA
:101E300008B50121102002F029FA4FF4C050ADF886
:101E4000000010208DF8030003208DF80200694681
:101E50008A4801F0D9FE0120894908608949C1F802
:101E6000AC0108BD10B58548406820F47040834936
:101E700048600846406840F440504860012080496E
:101E8000091F08607F49C1F8B001042001F07AFC05
:101E900000207B49091F0860042001F073FC00202A
:101EA0007849C1F8B00110BD10B57448406820F4FD
:101EB0007040724948600846406840F440504860AD
:101EC00000206F4908606F49C1F8AC01042001F09F
:101ED00059FC01206A4908606A49C1F8AC01042034
:101EE00001F050FC10BD10B500246448406820F497
:101EF0007040624948600846406840F400404860CD
:101F000001205F49091F086001F03CFC01205D4988
:101F1000C1F8B00101F036FC07E0601CC4B2FA2C35
:101F200003DDFFF7C1FF012010BD5548843800686C
:101F30000028F2D15249086000BFF5E710B5002033
:101F40004F4908604D48406820F470404B49486054
:101F50000846406840F44050486000204949C1F8B4
:101F6000AC01022001F00EFC01204549086002206E
:101F700001F008FC00204349C1F8B00110BD10B5C4
:101F800000203F4908603D48406820F470403B49CC
:101F900048600846406840F4405048600120394994
:101FA000C1F8AC01022001F0EDFB012034490860CA
:101FB000022001F0E7FB00203249C1F8B00110BD5A
:101FC00070B504462D48406820F470402B494860A5
:101FD0000846406840F440504860002028490860A6
:101FE000002517E0E0092649091F08606006040E75
:101FF000022001F0C7FB01202249C1F8B0010220F4
:1020000001F0C0FB00201E490860022001F0BAFB6D
:10201000681CC5B2082DE5DB70BD70B5054600240F
:102020001648406820F470401449486008464068EB
:1020300040F400404860002616E000201049086087
:10204000022001F09FFB01200E49C1F8B00160069B
:10205000040E0B488438006808B1601CC4B201202B
:1020600001F090FB701CC6B2082EE6DB15B9FFF735
:1020700086FF01E0FFF762FF204670BD00100140BF
:10208000B00122420000224210B5FFF7D1FE10BD80
:1020900070B504460026FFF7E5FE2546E11704EB80
:1020A00011610912A02202EB4101C8B2FFF788FFBB
:1020B000FFF719FFE11704EB11610912A4EB0121ED
:1020C000C8B2FFF77DFFFFF70EFFFFF7CBFEA120A1
:1020D000FFF776FFFFF707FF0020FFF79EFF06469A
:1020E000FFF7E2FE304670BD70B504460E46FFF7BE
:1020F000B9FE2546E11704EB11610912A02202EB9B
:102100004101C8B2FFF75CFFFFF7EDFEE11704EBFA
:1021100011610912A4EB0121C8B2FFF751FFFFF7CB
:10212000E2FE3046FFF74CFFFFF7DDFEFFF7BCFE97
:102130000A2001F00BFB70BD2DE9F04105460E466B
:102140001746002409E0E20026FA02F2D1B22A1969
:1021500090B2FFF7C9FF601CC4B2BC42F3DBBDE81C
:10216000F0812DE9F04107460C460026002509E0E4
:1021700036023919491B491E88B2FFF789FF064408
:10218000681CC5B2A542F3DB3046BDE8F08110B54E
:10219000FF20FFF77DFF0446552C01D1002010BD24
:1021A0005521FF20FFF7A0FFFF20FFF771FF044636
:1021B000552C01D10020F2E70120F0E770B506466A
:1021C0000C46154608E03046721C96B2FFF760FFD9
:1021D00004F8010B681E85B2002DF4D170BD70B5F6
:1021E00005460C46164606E021782846FFF77CFF98
:1021F000681C85B2641C3000A6F101018EB2F3D1D7
:1022000070BD000070B50546002405E0601CC4B236
:10221000C82C01DD002070BD02212F4802F0E9F931
:102220000028F3D029462C4802F090F9002400BF82
:102230000121294802F0DDF90028F9D0601CC4B260
:10224000C82C01DD0020E6E7234802F081F9C0B286
:10225000E1E708B5012141F2040002F017F8E0209F
:10226000ADF8000018208DF8030003208DF802005F
:1022700069461A4801F0C8FCE021184801F071FDD8
:102280000020174908804FF4827048800020888021
:102290000220C880012008814002488138208881BE
:1022A0000020C881072008820B4802F079F801213C
:1022B000094802F01AF9FF20FFF7A4FF08BD10B586
:1022C0000446074884810146034802F069F8012169
:1022D000014802F00AF910BD003001400008014039
:1022E00040020020002100BF15E000F080021AB17A
:1022F0000122FA4B1A6002E00022F84B1A604206F3
:10230000100E0022F54B0C3B1A600122F44BC3F86F
:1023100080214A1CD1B20829E7DB704770B5064618
:10232000002500240020ED490C390860EC49C1F873
:10233000B4013046FFF7D6FF062001F023FA012052
:10234000E6490C3908600020E549C1F8800100BF6A
:1023500013E04FF6FF7000EA44040020DF490C3917
:1023600008600120DE49C1F88001DC48843800683B
:1023700008B1601C84B2681CC5B2102DE9DB2411C1
:102380000120D64928310860204670BD2DE9F04172
:1023900088B080460027002406E04046FFF7BEFFD5
:1023A0002DF81400601C84B20F2CF6DB002416E01C
:1023B000601C85B20FE03DF814003DF8151088420E
:1023C00007DD3DF814603DF815002DF814002DF8D8
:1023D0001560681C85B20F2DEDDB601C84B20E2CDD
:1023E000E6DB0027052405E03DF81400384487B2F9
:1023F000601C84B20A2CF7DB052097FBF0F086B254
:10240000304608B0BDE8F0812DE9F04104460D46A4
:10241000B4480078FFF7BAFF0646B3480078FFF7E4
:10242000B5FF0746642E01DB642F02DA0020BDE809
:10243000F08126802F800120F9E77FB504460D4604
:1024400002A903A8FFF7E0FF064616B9002004B072
:1024500070BD694601A8FFF7D7FF06460EB90020F8
:10246000F5E7BDF80400BDF80C10884206DCBDF8A5
:102470000C10BDF80400323081420CDBBDF80C00BA
:10248000BDF80410884236DCBDF80410BDF80C001D
:10249000323081422FDABDF80000BDF808108842C2
:1024A00006DCBDF80810BDF80000323081420CDBBC
:1024B000BDF80800BDF8001088421CDCBDF8001013
:1024C000BDF808003230814215DABDF80C10BDF8B5
:1024D0000420881800EBD071C1F34F012180BDF8B2
:1024E0000810BDF80020881800EBD071C1F34F012F
:1024F00029800120ABE70020A9E730B17B490968BA
:1025000041F00201794A116005E07849096821F03B
:102510000201764A1160704710B500240020FFF7D1
:10252000ECFF002072490872891D881EFFF785FFA5
:1025300004E0601CC4B20A2001F008F9674888383A
:10254000006808B9FA2CF4DD0120FFF7D6FFFA2C59
:1025500001DB002010BD0120FCE770B504460D46EC
:10256000A4F10C0188B22B4604F10D022946FFF7B5
:10257000CDF905F10D0083B2193881B2224620460B
:10258000FFF7C4F9681C81B2601CFEF72DFA6A1CC3
:1025900091B2621E90B2FEF727FA681E81B2601CEB
:1025A000FEF722FA6A1E91B2621E90B2FEF71CFA82
:1025B000062229462046FFF721FA70BD70B5044671
:1025C0000D4629462046FEF70FFA2946601CFEF705
:1025D0000BFA681C81B22046FEF706FA681C81B22D
:1025E000601CFEF701FA70BD2DE9F0414049891DDC
:1025F000881EFFF722FF80B33D49B1F9140003F0B4
:1026000085FE06463A49888803F098FE0746384812
:10261000C168384603F0A6FE0546314603F016FDB4
:10262000044603F053FE32490880B1F9160003F066
:102630006DFE06462E49C88803F080FE07462C48EA
:102640000169384603F08EFE0546314603F0FEFC74
:10265000044603F03BFE26494880BDE8F081012096
:10266000234908720220214914310860704770B56F
:102670001F49C8681F4903F075FE054603F00AFEAE
:102680000446042221462820FFF756FD1849086910
:10269000184903F067FE054603F0FCFD04460422DA
:1026A00021462C20FFF748FD1148B0F914100222F2
:1026B0003020FFF741FD0E48B0F9161002223220FB
:1026C000FFF73AFD0A48017E3420FFF70DFD0A248A
:1026D00021463520FFF708FD70BD00008C01224225
:1026E000000022421C0000201D00002000040140C8
:1026F0005402002020BCBE4C70B53520FFF7C8FC4A
:1027000004460A2C40D104212820FFF72AFD044664
:10271000204603F0FBFD0546F84903F0F9FCF849B3
:10272000C86004212C20FFF71CFD0446204603F05E
:10273000EDFD0546F14903F0EBFCF149086102218A
:102740003020FFF70EFD00B2ED49888202213220D1
:10275000FFF707FD00B2EA49C8823420FFF798FC72
:10276000E74908760846007E30B19020E5490870B8
:10277000D020E549087005E0D020E249087090209B
:10278000E1490870012070BD0020FCE710B5044647
:10279000DEA228210846FFF79EFAE2A23C2128206B
:1027A000FFF799FAE5A250212820FFF794FAE9A251
:1027B00064212820FFF78FFAE6A264212820FFF782
:1027C0008AFA224678212820FFF785FA10BD00B545
:1027D00091B000200B900B901F20E44908804FF629
:1027E000FF70E3490880FEF71AF94FF47840DF499B
:1027F00008804FF6FF70FEF712F914210846FFF724
:10280000ACFE0020BE490872C8607DE2BC48007A78
:10281000012875D1FFF780FE88B1B948808801B2E0
:102820000CAA0B9822F82010B548C08801B20B986A
:1028300002EB800041800B98401CC0B20B900B98BB
:10284000012806D002280DD0032815D0042808D16D
:102850001CE04FF6FF70FEF7E2F81421DC20FFF7D2
:102860007CFEF5E34FF6FF70FEF7D9F84FF4967152
:102870001420FFF772FEF4E74FF6FF70FEF7CFF873
:102880004FF49671DC20FFF768FEEAE7BDF93000EF
:10289000BDF93410401A0590002801DB059801E0CD
:1028A000059840420890BDF93210BDF93600081A6B
:1028B0000590002801DB059801E00598404207904B
:1028C000089840430890079840430790DDE90710B7
:1028D0000844019003F0CFF9CDE9020103F06CF94F
:1028E000CDE9040103F09AF980B20A90BDF93800ED
:1028F000BDF93C10401A0590002802DB059802E063
:10290000D6E3059840420890BDF93A10BDF93E0063
:10291000081A0590002801DB059801E0059840425F
:102920000790089840430890079840430790DDE9D6
:1029300007100844019003F09EF9CDE9020103F06D
:102940003BF9CDE9040103F069F980B209900998D7
:1029500003F0F4FC05900A9803F0F0FC049005994C
:1029600003F0D6FB0690069803F044FB4FF0663266
:10297000804BCDE9040103F091F90ED3069803F0E2
:1029800039FB7D4A7D4BCDE9040103F017FA04D3EE
:102990000A9810B10998002876D100200B904FF6C4
:1029A000FF70FEF73CF814210846FFF7D6FD74A02F
:1029B000FFF7ECFE10200090BDF930000423024622
:1029C000282105904020FFF70EF910200090BDF956
:1029D000320004230246282105909020FFF703F9D6
:1029E00010200090BDF93400042302463C210590DC
:1029F0004020FFF7F8F810200090BDF936000423BE
:102A000002463C2105909020FFF7EDF81020009041
:102A1000BDF9380004230246502105904020FFF7FD
:102A2000E2F810200090BDF93A000423024650213C
:102A300005909020FFF7D7F810200090BDF93C00DA
:102A400004230246642105904020FFF7CCF81020B3
:102A50000090BDF93E0004230246642105909020B9
:102A6000FFF7C1F84949069803F07CFC049003F095
:102A70002DFC05901020032300908C212820059A1E
:102A8000FFF7B1F815E3FFE7BDF93000BDF93810E5
:102A9000401A0590002801DB059801E005984042A6
:102AA0000890BDF93210BDF93A00081A05900028C7
:102AB00001DB059801E005984042079008984043E3
:102AC0000890079840430790DDE9071008440190FB
:102AD00003F0D1F8CDE9020103F06EF8CDE904016D
:102AE00003F09CF880B20A90BDF93400BDF93C10A7
:102AF000401A059000284BDB05984BE020BCBE4CEB
:102B0000540200201C0000201D00002078313A20D3
:102B100020202020202079313A2020202020202031
:102B20000000000078323A20202020202020793236
:102B30003A202020202020200000000078333A2076
:102B400020202020202079333A20202020202020FF
:102B50000000000078343A20202020202020793402
:102B60003A20202020202020000000001600002015
:102B7000180000206666EE3FCDCCCCCCCCCCF03F2C
:102B8000766572206661632069733A000000C8426E
:102B9000059840420890BDF93610BDF93E00081A6C
:102BA0000590002801DB059801E005984042079058
:102BB000089840430890079840430790DDE90710C4
:102BC0000844019003F057F8CDE9020102F0F4FF48
:102BD000CDE9040103F022F880B20990099803F0CE
:102BE000ADFB05900A9803F0A9FB0490059903F04A
:102BF0008FFA0690069803F0FDF94FF06632F94B14
:102C0000CDE9040103F04AF809D3069803F0F2F97C
:102C1000F54AF64BCDE9040103F0D0F876D2002056
:102C20000B904FF6FF70FDF7FAFE14210846FFF7F0
:102C300094FCEFA0FFF7AAFD10200090BDF9300032
:102C400004230246282105904020FEF7CCFF1020E7
:102C50000090BDF9320004230246282105909020FF
:102C6000FEF7C1FF10200090BDF934000423024696
:102C70003C2105904020FEF7B6FF10200090BDF9E2
:102C80003600042302463C2105909020FEF7ABFF5E
:102C900010200090BDF93800042302465021059011
:102CA0004020FEF7A0FF10200090BDF93A00042359
:102CB0000246502105909020FEF795FF10200090CD
:102CC000BDF93C0004230246642105904020FEF734
:102CD0008AFF10200090BDF93E00042302466421C3
:102CE00005909020FEF77FFFC449069803F03AFB59
:102CF000049003F0EBFA05901020032300908C2140
:102D00002820059AFEF76FFFD3E1FFE7BDF93400F5
:102D1000BDF93810401A0590002801DB059801E044
:102D2000059840420890BDF93610BDF93A00081ADE
:102D30000590002801DB059801E0059840420790C6
:102D4000089840430890079840430790DDE9071032
:102D50000844019002F08FFFCDE9020102F02CFF40
:102D6000CDE9040102F05AFF80B20A90BDF93000AB
:102D7000BDF93C10401A0590002801DB059801E0E0
:102D8000059840420890BDF93210BDF93E00081A7E
:102D90000590002801DB059801E005984042079066
:102DA000089840430890079840430790DDE90710D2
:102DB0000844019002F05FFFCDE9020102F0FCFE41
:102DC000CDE9040102F02AFF80B20990099803F0CE
:102DD000B5FA05900A9803F0B1FA0490059903F04A
:102DE00097F90690069803F005F94FF066327D4B8F
:102DF000CDE9040102F052FF09D3069803F0FAF876
:102E0000794A7A4BCDE9040102F0D8FF76D200204E
:102E10000B904FF6FF70FDF702FE14210846FFF7F6
:102E20009CFB77A0FFF7B2FC10200090BDF93000AA
:102E300004230246282105904020FEF7D4FE1020EE
:102E40000090BDF93200042302462821059090200D
:102E5000FEF7C9FE10200090BDF93400042302469D
:102E60003C2105904020FEF7BEFE10200090BDF9E9
:102E70003600042302463C2105909020FEF7B3FE65
:102E800010200090BDF9380004230246502105901F
:102E90004020FEF7A8FE10200090BDF93A00042360
:102EA0000246502105909020FEF79DFE10200090D4
:102EB000BDF93C0004230246642105904020FEF742
:102EC00092FE10200090BDF93E00042302466421CA
:102ED00005909020FEF787FE4849069803F042FAD5
:102EE000049003F0F3F905901020032300908C2147
:102EF0002820059AFEF777FEDBE0FFE7BDF93400F6
:102F0000BDF93010401A049003F000FA0146059014
:102F10003E4803F0FDF83E49C860BDF93400BDF9F4
:102F200030100844019003F0F1F902903848C0686D
:102F300001460190029803F015FA3649039003F018
:102F4000DDFA4FF08041049003F0E2F8059003F0C1
:102F5000A1F900B22E498882BDF93A00BDF93210BC
:102F6000401A049003F0D2F9014605902A4803F074
:102F7000CFF827490861BDF93A00BDF9321008447D
:102F8000019003F0C3F902902148006901460190C5
:102F9000029803F0E7F92149039003F0AFFA4FF0EC
:102FA0008041049003F0B4F8059003F073F900B287
:102FB0001749C8820846C068039003F06BF9049073
:102FC000002801DB049801E00498404202282BDC31
:102FD0000F480069039003F05DF9059000281FDB9E
:102FE00005981FE06666EE3FCDCCCCCCCCCCF03F54
:102FF000686F72206661632069733A000000C842FE
:10300000646961206661632069733A000000484387
:10301000540200200000704300008C430000A043D5
:103020000598404202282CDD00200B904FF6FF70DF
:10303000FDF7F5FC14210846FFF78FFA4AA26E212E
:103040002320FEF748FE4D48007E10B9012001E024
:103050002DE00020494908760846007E30B19020D6
:1030600047490870D0204749087005E0D0204449FE
:1030700008709020434908704FF4FA7000F066FB26
:1030800017E01F20404908804FF6FF70FDF7C7FC8E
:103090003EA26E212320FEF71EFE4FF4FA7000F0D0
:1030A00055FB4FF6FF70FDF7BAFC11B000BD00BF35
:1030B00000BFFFF7ABBB1FB50121112001F0E6F8FF
:1030C00042F20900ADF8080010208DF80B00032033
:1030D0008DF80A0002A9334800F096FD0620ADF8ED
:1030E000080048208DF80B0002A92E4800F08CFD46
:1030F0002249891D881EFFF787F907208DF80C00EB
:1031000002208DF80D0000208DF80E0001208DF8B2
:103110000F0003A800F021FC0121084601F0B6F8D9
:103120000121022000F086FE0220009000208DF890
:1031300004000C208DF8050001208DF8060068467B
:1031400000F082FCFEF7A0FFFFF7D6FA00B11FBD2A
:103150004FF6FF70FDF763FCFFF739FBFFF787FAC7
:10316000FFF7CAFA00BFF2E75450204E65656420AD
:10317000726561646A757374210000005402002056
:103180001C0000201D00002016000020546F7563F5
:10319000682053637265656E2041646A757374209C
:1031A0004F4B21000010014010B504462046FFF7A8
:1031B00029F810BD10B53820FFF781F810BD10B503
:1031C0000020FFF77CF810BD08B50121042001F0B4
:1031D0005DF81C20ADF8000010208DF803000320DE
:1031E0008DF802006946FE4800F00EFD1C21FC48E7
:1031F00000F0B7FDFFF72DF80120FA49086008BD7F
:1032000010B50120F7490860FF20FFF7CDFF10BD82
:1032100010B5002400BFFF20FFF7C6FFFF2801D133
:10322000002010BD641C6FF07F408442F3D3012066
:10323000F7E710B50020EB490860FFF7E9FF08B990
:10324000002010BDFFF7DCFF0120FAE770B505464E
:1032500040F6FF7401E0601E84B2FF20FFF7A4FF78
:10326000A84201D0002CF6D10CB9FF2070BD00207F
:10327000FCE770B504460D46FE20FFF7E7FF08B1F6
:10328000012070BD04E0FF20FEF7BCFF2070641C2D
:103290002800A5F101018DB2F5D1FF20FFF784FFD1
:1032A000FF20FFF781FF0020EBE770B506460D46D3
:1032B000FFF7AEFF08B1012070BD2846FFF774FF8D
:1032C000FD2D19D0002404E0305DFEF79BFF601C4B
:1032D00084B2B4F5007FF7DBFF20FFF765FFFF2026
:1032E000FFF762FFFF20FFF75FFF044604F01F00B7
:1032F000052801D00220DFE70020DDE72DE9F041BD
:1033000005460C4617464FF00008FFF779FFFFF718
:1033100090FF10B1FF20BDE8F08145F04000FFF7BD
:1033200043FF200EFFF740FFC4F30740FFF73CFFC9
:10333000C4F30720FFF738FFE0B2FFF735FF384648
:10334000FFF732FF0C2D02D1FF20FFF72DFF4FF0CA
:103350001F0800BFFF20FFF727FF064606F080008A
:1033600030B15FEA0800A8F1010101F0FF08F1D1D6
:103370003046D0E770B50546012200210A20FFF74C
:10338000BDFF044624B910212846FFF772FF04460A
:10339000FFF736FF0CB1012070BD0020FCE770B5CF
:1033A0000546012200210920FFF7A8FF044624B9A1
:1033B00010212846FFF75DFF0446FFF721FF0CB1FF
:1033C000012070BD0020FCE77FB56846FFF7E7FFEE
:1033D00010B1002004B070BD9DF8000000F0C000E6
:1033E000402809D19DF809009DF8081000EB012044
:1033F000401C84B2A50220E09DF8050000F00F00FB
:103400009DF80A1000EBD1109DF8091001F003019E
:1034100000EB4100861C9DF8080080119DF8071004
:1034200000EB81009DF8061001F0030100EB812004
:10343000441CA6F1090004FA00F52846CAE770B555
:10344000002401E0601C84B2B4F5706FFADB002444
:1034500004E0FF20FEF7D6FE601C84B20A2CF8DBE5
:10346000002500BF952200210846FFF747FF0446CC
:10347000681CC5B2012C01D0C82DF3DBC82D01D1C9
:10348000012070BD0020FCE7F8B5FFF79DFEFFF7B7
:1034900091FE002504E0FF20FFF786FE681C85B240
:1034A0000A2DF8DB142600BF952200210846FFF7FD
:1034B00025FF0446012C04D03000A6F101018EB294
:1034C000F2D1002048490870012C4AD187224FF4DC
:1034D000D5710820FFF712FF012847D1002506E02B
:1034E000FF20FFF761FE0DF80500681C85B2042D72
:1034F000F6DB9DF802000128E7D19DF80300AA2819
:103500007CD14FF6FE7600BF012200213720FFF765
:10351000F5FE012291072920FFF7F0FE044624B1B1
:103520003000A6F101018EB2EED1002E66D001224C
:1035300000213A20FFF7E2FE00285FD1002506E0D7
:10354000FF20FFF731FE0DF80500681C85B2042D41
:10355000F6DB9DF8000000F0400018B1062022497B
:1035600008704BE004202049087047E00122002148
:103570003720FFF7C3FE012200212920FFF7BEFEFE
:103580000446012C17DC0220174908704FF6FE761E
:1035900000BF012200213720FFF7B0FE01220021E9
:1035A0002920FFF7ABFE0446BCB13000A6F10101B3
:1035B0008EB2EED111E001200B4908704FF6FE7675
:1035C00000BF012200211046FFF798FE044624B1F7
:1035D0003000A6F101018EB2F3D166B1012205E0FF
:1035E000000801408C0121421E00002051021020E1
:1035F000FFF784FE10B1002046490870FFF700FE77
:10360000FFF7DDFD4348007808B10020F8BD0CB19C
:103610002046FBE7AA20F9E72DE9F04106460F46D0
:1036200015463C480078062800D07F02012D0CD1B9
:10363000012239461120FFF761FE0446FCB96902F8
:103640003046FFF716FE044619E0012239461220E3
:10365000FFF754FE044600BF4FF400713046FFF7F9
:1036600008FE044606F50076681EC0B2050001D0CB
:10367000002CF1D0012200210C20FFF73FFEFFF7C4
:10368000BFFD2046BDE8F0812DE9F04106460F461A
:10369000154620480078062800D07F02012D0CD165
:1036A000012239461820FFF729FE04466CBBFE2193
:1036B0003046FFF7FAFD044627E016480078012857
:1036C00009D0012200213720FFF718FE01222946E8
:1036D0001720FFF713FE012239461920FFF70EFECF
:1036E000044694B900BFFC213046FFF7DEFD0446D6
:1036F00006F50076681EC0B2050001D0002CF2D09D
:10370000FD210020FFF7D1FD0446FFF779FD20469B
:10371000BDE8F0811E00002010B504466FF00400E3
:1037200000F065F9E11704EB5171C1F3C701234AB9
:1037300011701046007800EB4001C1EBC0104FF64D
:10374000FF7101EAC0001E49088010BD01461C4AF5
:1037500012884A434FF0E0235A6100229A61012205
:103760001A6100BF4FF0E022106900F001021AB1A7
:1037700000F48032002AF5D000224FF0E0231A61D5
:103780009A61704701460D4A12784A434FF0E02390
:103790005A6100229A6101221A6100BF4FF0E022B3
:1037A000106900F001021AB100F48032002AF5D04D
:1037B00000224FF0E0231A619A6170472000002038
:1037C0002200002010B54FF4A06000F0C1F810BD39
:1037D000014600BF704700BF494A128802F040020C
:1037E000002AF9D0C2B2464B1B1D1A80704710B593
:1037F00086B00446012144F2050000F047FD4FF475
:103800000070ADF8140003208DF8160018208DF814
:10381000170005A93B4800F0F7F94FF48060ADF8B8
:10382000140004208DF8170005A9364800F0ECF9C3
:1038300025208DF8000003208DF801008DF802008E
:1038400001208DF80300684600F087F801940020FD
:10385000ADF80800ADF80A00ADF80C00ADF81000A6
:103860000C20ADF80E0001A9254801F04AFE012206
:1038700040F22551224801F0DCFE0121204801F0F0
:10388000CCFE06B010BD10B540F225511C4801F029
:10389000B5FF10B31A4801F031FFC4B21A480078DE
:1038A00000F08000C8B91848007800F0400060B10E
:1038B0000A2C03D000201449087020E01248007838
:1038C00040F080001049087019E00D2C06D10E4818
:1038D000007840F040000C49087010E00A48007879
:1038E00000F03F0009490C5407480078401C064985
:1038F0000870084600783F2801DD0020087010BDE0
:10390000003801400008014028000020700200201B
:103910000948804709480047FEE7FEE7FEE7FEE763
:10392000FEE7FEE7FEE7FEE7FEE7FEE7044805499F
:10393000054A064B70470000B3040008ED0000087C
:1039400010030020100900201005002010050020A1
:1039500031490143314A1160704770B5002100239D
:103960000F22C47804B32D4C246804F4E064C4F539
:10397000E064210AC1F10403CA40447804FA03F167
:103980008478144021430901254C0678A155047818
:1039900004F01F050124AC4005786D11AD0005F160
:1039A000E025C5F8004109E0047804F01F05012472
:1039B000AC401C4D0678761145F8264070BD1A4A79
:1039C0000A400243154B1B1F1A60704739B1134A56
:1039D000121D12680243114B1B1D1A6006E00F4AAC
:1039E000121D126882430D4B1B1D1A60704704287C
:1039F00008D14FF0E021096941F004014FF0E022C5
:103A0000116107E04FF0E021096921F004014FF056
:103A1000E0221161704700000000FA050CED00E0A3
:103A200000E400E080E100E080FFFF1F0020444947
:103A30000860091D0860091D0860091D08604148EB
:103A40003F4914310860704700213D498279002ABE
:103A50003AD00A46126803689A430B461A600A1D58
:103A6000126803689A430B1D1A60027911440A68B0
:103A700003681A430A60324A0832126803689A439C
:103A80002F4B08331A601A1D126803689A432C4B97
:103A90000C331A604279102A0ED11A1F126803687B
:103AA0001A43274B08331A601A1D126803681A4319
:103AB000234B0C331A600DE02149427911440A6806
:103AC00003681A430A6005E0027911440A68036832
:103AD0009A430A6070470021016001710C21417115
:103AE0000021817170471649103109680143144A59
:103AF00010321160704701460020114A14321268DA
:103B00000A400AB1012000E0002070470C4914313E
:103B100008607047014600200022094B1B6803EA39
:103B20000102074B14331B680B4013B10AB101208B
:103B300000E000207047024914310860704700001F
:103B400000040140FFFF0F0010B50446CC4884423A
:103B500008D10121042000F0B3FB0021042000F073
:103B6000AFFB46E0C748844208D10121082000F09D
:103B7000A7FB0021082000F0A3FB3AE0C2488442E2
:103B800008D10121102000F09BFB0021102000F043
:103B900097FB2EE0BD48844208D10121202000F08F
:103BA0008FFB0021202000F08BFB22E0B8488442EC
:103BB00008D10121402000F083FB0021402000F0CB
:103BC0007FFB16E0B348844208D10121802000F039
:103BD00077FB0021802000F073FB0AE0AE488442AE
:103BE00007D10121801500F06BFB0021A01500F02A
:103BF00067FB10BD10B50121084600F061FB0021F4
:103C0000012000F05DFB10BD2DE9F04102460025CA
:103C10000026002000230024002791F803C00CF0A8
:103C20000F0591F803C00CF0100CBCF1000F03D08D
:103C300091F802C04CEA050591F800C0BCF1000FF4
:103C400031D0146800202BE04FF0010C0CFA00F387
:103C5000B1F800C00CEA03069E4220D183004FF069
:103C60000F0C0CFA03F7BC4305FA03FC4CEA0404FE
:103C700091F803C0BCF1280F06D14FF0010C0CFAEB
:103C800000FCC2F814C00AE091F803C0BCF1480F70
:103C900005D14FF0010C0CFA00FCC2F810C0401C1A
:103CA0000828D1D31460B1F800C0BCF1FF0F34DD97
:103CB000546800202EE000F1080C4FF0010808FACB
:103CC0000CF3B1F800C00CEA03069E4221D1830038
:103CD0004FF00F0C0CFA03F7BC4305FA03FC4CEA57
:103CE000040491F803C0BCF1280F05D100F1080CC1
:103CF00008FA0CF8C2F8148091F803C0BCF1480F20
:103D000007D100F1080C4FF0010808FA0CF8C2F8CE
:103D10001080401C0828CED35460BDE8F0814FF6D7
:103D2000FF710180022181700421C1707047024639
:103D3000002093680B400BB1012000E00020704789
:103D40000146886880B2704702460020D3680B4065
:103D50000BB1012000E0002070470146C86880B226
:103D6000704701617047416170470AB1016100E02D
:103D700041617047C16070474FF480320A438261ED
:103D80008161826182698269704702460020434BEB
:103D900018684FF68073184040EA021008433F4B02
:103DA000186070473E49C8617047F0B50A46002365
:103DB00000240021002500F00046B6F1004F02D19A
:103DC000364EF16901E0354E7168C0F3034583B2A8
:103DD00000F44016B6F5401F08D121F070612F4E57
:103DE000766826F070662D4F7E6012E000F4801633
:103DF000B6F5801F06D1032606FA05F4A14341F06B
:103E0000706106E0460D360103FA06F6B14341F053
:103E1000706122B1460D360103FA06F6314300F017
:103E20000046B6F1004F02D11C4EF16101E01B4E7D
:103E30007160F0BD30B500228B071C0F0F2303FA11
:103E400004F2164B08338C1053F824309343134C70
:103E500008348D1044F8253023468C1053F8243054
:103E60008C07240F00FA04F423430C4C08348D1003
:103E700044F8253030BD0A49DC3108607047000045
:103E800000080140000C01400010014000140140F6
:103E900000180140001C01400020014000000140CA
:103EA000000020420E49086070470D494860704785
:103EB0000B49886070474AF6AA2009490860704794
:103EC0004CF6CC4006490860704701460020044A81
:103ED000D2680A400AB1012000E0002070470000CB
:103EE0000030004010B50121080700F0F6F900216C
:103EF0004FF0805000F0F1F910BD2A490862704778
:103F000028490861704701460020274A106820F0C0
:103F1000E0000843106070472249A03108607047F4
:103F200010B502460020204B186820F00300104313
:103F300018601E4B1B6843F004031C4C23600129CE
:103F400001D130BF00E020BF184B1B6823F00403F1
:103F5000164C236010BD1448006840F0040012495C
:103F600008600846006840F0020008600F480068DA
:103F700040F004000D49086000BF00BF30BF70472B
:103F800001460020084A52680A400AB1012000E0B8
:103F9000002070470449096841EA8001024A116023
:103FA0007047000000000E420070004010ED00E07D
:103FB000DF48006840F00100DD49086008464068BD
:103FC000DC490840DA49486008460068DA49084098
:103FD000D74908600846006820F480200860084639
:103FE000406820F4FE0048604FF41F00886070476E
:103FF000CF49096821F48031CD4A11601146096822
:1040000021F480211160B0F5803F03D0B0F5802FFE
:104010000ED106E0C649096841F48031C44A1160F6
:1040200007E0C349096841F4A021C14A116000E0DA
:1040300000BF00BF704710B50146002200230020DA
:104040004A11012A02D1BA4C236806E0022A02D1A1
:10405000B74C236A01E0B64C636A01F01F020124E9
:1040600094401C400CB1012000E0002010BD38B588
:10407000002000900024002500BF3120FFF7DBFF67
:1040800005460098401C00900098B0F5A06F01D044
:10409000002DF2D03120FFF7CEFF08B1012400E05F
:1040A0000024204638BD01460020A14A106820F0B7
:1040B000F80040EAC10010607047A04908607047EE
:1040C000024600209A4B586820F47C1042EA010313
:1040D0001843974B586070479849086670470146E7
:1040E0000020934A506820F0030008435060704756
:1040F0008F48406800F00C007047014600208C4A51
:10410000506820F0F00008435060704701460020DE
:10411000874A506820F4E0600843506070470146C9
:104120000020834A506820F4605040EAC10050608B
:10413000704729B17E4A527A02437D4B5A7204E09D
:104140007B4A527A82437A4B5A7270477B49D83104
:104150000860704701460020754A506820F44040CE
:104160000843506070470021714A20321170704A34
:1041700082F82010012802D004280AD104E001218D
:104180006B4A2032117005E00521694A2032117016
:1041900000E000BF00BF704769490860704764498C
:1041A000096A0143624A11627047654944390860EF
:1041B000704730B500210022002400235C4D6D685B
:1041C00005F00C0121B1042905D0082923D105E00F
:1041D0005C4D056022E05B4D05601FE0544D6D684D
:1041E00005F47012524D6D6805F48034022505EB1C
:1041F00092421CB9544D554305600BE04C4D6D681F
:1042000005F400351DB1504D5543056002E04D4D9C
:104210005543056002E04B4D056000BF00BF444DB3
:104220006D6805F0F0010909484D6B5C0568DD40DB
:1042300045603F4D6D6805F4E061090A434D6B5CD4
:104240004568DD4085603A4D6D6805F46051C90AE6
:104250003E4D6B5C4568DD40C560354D6D6805F4CD
:104260004041890B3A4D6B5CC568B5FBF3F50561C0
:1042700030BD29B12E4A526902432D4B5A6104E0E8
:104280002B4A526982432A4B5A61704729B1284A06
:1042900092690243264B9A6104E0254A926982435F
:1042A000234B9A61704729B1214AD2690243204BBE
:1042B000DA6104E01E4AD26982431D4BDA6170471D
:1042C00029B11B4AD2680243194BDA6004E0184A4C
:1042D000D2688243164BDA60704729B1144A1269DA
:1042E0000243134B1A6104E0114A12698243104BD6
:1042F0001A61704712494039086070470F49C86415
:1043000070470B49C87170470948406A40F0807097
:1043100007494862704701460020054A92680A40F2
:104320000AB1012000E000207047014988727047FF
:10433000001002400000FFF8FFFFF6FE00004242BE
:104340008004424200127A0000093D00290000204A
:104350003900002010B50446BE48844208D101212E
:104360008014FFF7ADFF0021A014FFF7A9FF16E0AE
:10437000B948844208D101210014FFF7AEFF0021A3
:104380002014FFF7AAFF0AE0B448844207D10121B4
:10439000C013FFF7A2FF0021E013FFF79EFF10BD3F
:1043A00010B50022028802F441520B884C88234346
:1043B0008C882343CC8823430C8923434C89234393
:1043C0008C892343CC8923431A430280838B4FF289
:1043D000FF74234083830B8A038210BD2DE9F04FC5
:1043E00085B005460C464FF0000902274FF0000843
:1043F0004FF0010B0026B246A88B4FF24001084057
:10440000A88302202884B5F81C90A068022801D156
:1044100000BF38E0A08810B94FF0010B01E04FF069
:10442000020B8D48854200D100E000BF6846FFF7CF
:10443000C0FEDDF800A0E088B0F5007F0AD14FEAA9
:104440001A2000EB80004000A168B0FBF1F0401D95
:1044500086B20BE04FEA4B10BAFBF0F000EB8000A5
:104460004000A168B0FBF1F0401D86B20A20B6FB07
:10447000F0F606F00108A6EB0800C0F34F074FF670
:10448000FF7000EA0828022F01DBFF2F02DD022760
:104490004FF00008E08840EA080038432884A088EC
:1044A000A1890843618808432188084340F40060DB
:1044B00040EA0909A5F81C9005B0BDE8F08F00217D
:1044C000018041808180C180018141818181C181E0
:1044D0000721018270470021018041808180C180D5
:1044E0000221816000218181704721B1028842F060
:1044F0004002028004E002884FF6BF731A40028037
:10450000704721B1828B42F48062828304E0828B07
:104510004FF6FF331A408283704730B500240023E2
:104520000C110125A540ABB21AB185881D438580C9
:1045300002E085889D43858030BD1AB183880B4396
:10454000838002E083888B4383807047818170473A
:104550000146888970474FF6FF62914204D0028875
:1045600042F48072028004E002884FF6FF631A4032
:104570000280704721B1828842F00402828004E008
:1045800082884FF6FB731A408280704702884FF290
:10459000FF731A40028002880A4302807047018834
:1045A00041F480510180704721B1028842F40052E9
:1045B000028004E002884DF6FF731A4002807047C3
:1045C00002460020012901D0108B00E0908A70473C
:1045D0000146088A7047B1F5804F04D1028842F441
:1045E0008042028004E002884BF6FF731A4002808A
:1045F00070470246002013890B400BB1012000E0F8
:1046000000207047CA4302817047F0B5024600207F
:1046100000240023002501F00F070126BE40B4B29C
:104620000B1101269E40B3B2968806EA030516894F
:10463000264016B10DB1012000E00020F0BD10B5FC
:10464000002201F00F040123A3409AB2D343038157
:1046500010BD00000030014000380040003C004028
:1046600010B50446FE48844208D10121C014FFF76A
:1046700027FE0021E014FFF723FEC4E0B4F1804FD1
:1046800008D101210846FFF728FE00210120FFF78D
:1046900024FEB8E0F348844208D101210220FFF74C
:1046A0001CFE00210220FFF718FEACE0EE48844219
:1046B00008D101210420FFF710FE00210420FFF79C
:1046C0000CFEA0E0E948844208D101210820FFF750
:1046D00004FE00210820FFF700FE94E0E448844235
:1046E00008D101211020FFF7F8FD00211020FFF76D
:1046F000F4FD88E0DF48844208D101212020FFF743
:10470000ECFD00212020FFF7E8FD7CE0DA48844240
:1047100008D101214014FFF7D3FD00216014FFF7F9
:10472000CFFD70E0D548844209D10121C804FFF7CC
:10473000C7FD00214FF40020FFF7C2FD63E0D04821
:10474000844209D101210805FFF7BAFD00214FF489
:104750008010FFF7B5FD56E0CA48844209D1012117
:104760004805FFF7ADFD00214FF40010FFF7A8FD4D
:1047700049E0C548844208D101214020FFF7ADFD42
:1047800000214020FFF7A9FD3DE0C048844208D148
:1047900001218020FFF7A1FD00218020FFF79DFD72
:1047A00031E0BB48844208D101218015FFF795FD17
:1047B0000021A015FFF791FD25E0B648844209D1FC
:1047C00001210804FFF77CFD00214FF48030FFF742
:1047D00077FD18E0B048844209D101214804FFF771
:1047E0006FFD00214FF40030FFF76AFD0BE0AB488E
:1047F000844208D101218804FFF762FD00214FF4B3
:104800008020FFF75DFD10BD00220288944B984286
:104810000ED0994B98420BD0B0F1804F08D0914BFD
:10482000984205D0904B984202D0904B984204D1C8
:104830004FF68F731A404B881A438D4B984207D01E
:104840008C4B984204D04FF6FF431A40CB881A4352
:1048500002808B8883850B880385814B98420BD01F
:10486000854B984208D08B4B984205D08A4B984292
:1048700002D08A4B984201D10B7A038601238382AE
:10488000704770B5002400220023058C4FF6FE7699
:1048900035400584028C8388048B4FF68F752C403D
:1048A000B51E2C400D882C43751E2A400D892A43C5
:1048B0004D882A436A4DA8420BD06F4DA84208D0BC
:1048C000744DA84205D0744DA84202D0734DA84241
:1048D00013D14FF6F7752A404D892A434FF6FB75E1
:1048E0002A408D882A434FF6FF652B404FF6FF552F
:1048F0002B408D892B43CD892B4383800483CD8826
:104900008586028470BD70B5002400220023058CCA
:104910004FF6EF7635400584028C8388048B48F689
:10492000FF752C404FF6FF452C400D884FF6FF7663
:1049300006EA05252C434FF6DF752A400D8906EA65
:1049400005152A434D8806EA05152A43444DA84219
:1049500002D0494DA8421DD14FF67F752A404D899E
:104960004FF6FF7606EA05152A434FF6BF752A4033
:104970008D8806EA05152A434FF6FF352B404FF286
:10498000FF752B408D8906EA85052B43CD8906EA04
:1049900085052B4383800483CD880587028470BD01
:1049A00070B5002400220023058C4FF6FF663540C9
:1049B0000584028C8388848B4FF68F752C404FF6CC
:1049C000FC752C400D882C434FF6FF552A400D896D
:1049D0004FF6FF7606EA05252A434D8806EA0525A7
:1049E0002A431F4DA84202D0234DA8421DD14FF2A9
:1049F000FF752A404D894FF6FF7606EA05252A43C2
:104A00004FF6FF352A408D8806EA05252A434EF6E3
:104A1000FF752B404DF6FF752B408D8906EA051575
:104A20002B43CD8906EA05152B4383808483CD88EB
:104A30008587028470BD70B5002200230024058C98
:104A40004EF6FF7635400584038C8488828B48F6C9
:104A5000FF752A404FF6FF452A400D8820E00000F0
:104A6000002C01400004004000080040000C004001
:104A7000001000400014004000340140004C014090
:104A8000005001400054014000180040001C00404C
:104A90000020004000400140004401400048014027
:104AA0004FF6FF7606EA05252A434DF6FF752B40A3
:104AB0000D8906EA05352B434D8806EA05352B435B
:104AC000FA4DA84202D0FA4DA84208D14BF6FF7524
:104AD0002C408D894FF6FF7606EA85152C4384809D
:104AE0008283CD88A0F84050038470BD828B4FF242
:104AF000FF331A408283828B4FF6FF7303EA012350
:104B00001A4382837047F0B50C46154600220021F7
:104B10000026078C4EF6FF7C07EA0C070784828B81
:104B2000018C4FF6FF7707EA043640F6FF473A401C
:104B30004FF6FF7707EA05273A434FF6FF7707EA74
:104B400003373A43D94FB8420ED0D94FB8420BD0B1
:104B5000B0F1804F08D0D74FB84205D0D64FB842F9
:104B600002D0D64FB84206D14DF6FF77394046F411
:104B70008057394305E047F6FF57394044F48057E2
:104B8000394382830184F0BD828B4FF6F3731A4060
:104B90008283828B0A4382837047F0B50C461546A8
:104BA000002200210026078C4FF6FF6C07EA0C0755
:104BB0000784828B018C4FF6FF7707EA04264FF6B5
:104BC0000C773A404FF6FF7707EA03172F433A4333
:104BD000B64FB8420ED0B64FB8420BD0B0F1804FAE
:104BE00008D0B44FB84205D0B34FB84202D0B34F4B
:104BF000B84206D14FF6FF57394046F48077394323
:104C000005E04FF2FF57394044F4807739438283FF
:104C10000184F0BD028B4FF2FF331A400283028BF6
:104C20004FF6FF7303EA01231A4302837047F0B57E
:104C30000C461546002200210026078C4FF6EF7C1B
:104C400007EA0C070784028B018C4FF6FF7707EA0F
:104C5000041640F6FF473A404FF6FF7707EA03375E
:104C60003A434FF6FF7707EA05273A438F4FB8429A
:104C70000ED08F4FB8420BD0B0F1804F08D08D4F7F
:104C8000B84205D08C4FB84202D08C4FB84206D102
:104C90004FF6DF77394046F01007394305E04FF60D
:104CA0005F77394044F01007394302830184F0BD37
:104CB000028B4FF6F3731A400283028B0A4302837E
:104CC0007047F0B50C46154600220021068C4FF6C1
:104CD000FE773E400684028B018C4FF60C76324004
:104CE0007E1C06EA03162E433243704EB0420ED0AD
:104CF0006F4EB0420BD0B0F1804F08D06D4EB04235
:104D000005D06D4EB04202D06C4EB04206D14FF687
:104D1000FD76314044F00106314305E04FF6F5766B
:104D2000314044F00106314302830184F0BD70B587
:104D300005460C465D4885420ED05D4885420BD045
:104D4000B5F1804F08D05B48854205D05A4885426E
:104D500002D05A48854200D100E000BF208850B9F7
:104D60002389A28861882846FFF7ABFFE18828469F
:104D7000FFF79EFF25E0208804280AD12389A28816
:104D800061882846FFF753FFE1882846FFF742FF76
:104D900017E0208808280AD12389A288618828463C
:104DA000FFF7FBFEE1882846FFF7EEFE09E02389C6
:104DB000A28861882846FFF7A6FEE1882846FFF70B
:104DC00095FE70BD2DE9F04105460C4600260127F1
:104DD000608808B9022600E00026A088012801D1D9
:104DE000022700E001272088A0B92389A2886188D2
:104DF0002846FFF766FFE1882846FFF759FF238919
:104E00003A4631462846FFF712FFE1882846FFF769
:104E100001FF13E02389A28861882846FFF707FF76
:104E2000E1882846FFF7F6FE23893A4631462846B0
:104E3000FFF747FFE1882846FFF73AFFBDE8F0811A
:104E40000A884B881A438B881A43CB881A430B89EC
:104E50001A434B891A438B891A43A0F844207047A0
:104E60004FF6FF71818000210180C1804180017275
:104E700070470021018041808180C1800181418192
:104E80008181C181704700210180418001218180A1
:104E90000021C18001817047002101804180818013
:104EA000C18001814181818170470000002C014057
:104EB000003401400004004000080040000C0040A5
:104EC00021B1028842F00102028004E002884FF61C
:104ED000FE731A400280704731B1B0F8442042F4AA
:104EE0000042A0F8442005E0B0F84420C2F30E02CE
:104EF000A0F8442070471AB183890B43838102E0F4
:104F000083898B43838170478182704741EA020322
:104F1000A0F8483070471AB183890B43838102E0BF
:104F200083898B438381704701894FF6F872114062
:104F3000018170470A46002101894FF68F7319409D
:104F400011430181704730B504460D46294620467D
:104F5000FFF7F0FF208940F00700208130BD2DE9E8
:104F6000F04104460D4616461F46602D06D13B46CD
:104F7000012231462046FFF75AFE05E03B4601225A
:104F800031462046FFF79DFE29462046FFF7D2FF17
:104F9000208940F007002081BDE8F08130B50C4643
:104FA00000210189C9B24FF6FF7505EA03251543B3
:104FB00025432943018130BD2DE9F04105460E46C8
:104FC00017469846002443463A4631462846FFF79E
:104FD000E5FF2C894FF6F870044044F007044FF6C3
:104FE0008F70044044F070042C81BDE8F081F0B56E
:104FF00004460D4616461F463B4632462946204685
:10500000FFF7CCFF208940F480402081F0BD01856E
:10501000828270470A46002101884FF68F7319403B
:10502000114301807047F0B50C4615461E4600211D
:10503000002200230189028B038C4FF6F877394058
:1050400021434FF6FC473A4040F201173A434FF6EE
:10505000DD773B404FF6FF7707EA06172F433B43C8
:10506000018102830384F0BD0A460021018B4FF6C3
:105070008F7319401143018370470A460021018B49
:1050800048F6FF7319404FF6FF7303EA02231943F2
:10509000018370470A460021818B4FF68F731940B8
:1050A0001143818370470A460021818B48F6FF73C4
:1050B00019404FF6FF7303EA0223194381837047B7
:1050C00021B1028842F08002028004E002884FF69B
:1050D0007F731A400280704721B1828842F0040237
:1050E000828004E082884FF6FB731A40828070470A
:1050F00021B1828842F00802828004E082884FF663
:10510000F7731A408280704721B1828842F0010211
:10511000828004E082884FF6FE731A4082807047D6
:105120000A460021018B4FF6F773194011430183A2
:1051300070470A460021018B4FF2FF7319404FF66A
:10514000FF7303EA02231943018370470A460021D3
:10515000818B4FF6F77319401143818370470A46DC
:105160000021818B4FF2FF7319404FF6FF7303EA62
:1051700002231943818370470A460021018B4FF6B1
:10518000FB7319401143018370470A460021018BCC
:105190004FF6FF3319404FF6FF7303EA022319431A
:1051A000018370470A460021818B4FF6FB7319403B
:1051B0001143818370470A460021818B4FF6FF33EC
:1051C00019404FF6FF7303EA0223194381837047A6
:1051D0000A460021018B4FF67F731940114301836A
:1051E00070470A460021018BC1F30E014FF6FF7391
:1051F00003EA02231943018370470A460021818B89
:105200004FF67F7319401143818370470A4600218E
:10521000818BC1F30E014FF6FF7303EA022319439A
:10522000818370470A460021018C4FF6FD731940B7
:105230001143018470470A460021018C4FF6F77331
:1052400019401143018470470A460021018C4FF632
:10525000DF7319404FF6FF7303EA02131943018409
:1052600070470A460021018C4FF67F7319404FF6B4
:10527000FF7303EA02131943018470470A460021B1
:10528000018C4FF6FF5319404FF6FF7303EA0223D8
:105290001943018470470A460021018C4FF2FF73C5
:1052A00019404FF6FF7303EA022319430184704744
:1052B0000A460021018C4DF6FF7319404FF6FF732B
:1052C00003EA023319430184704730B500230124F7
:1052D0008C40A3B2048C9C430484048C02FA01F534
:1052E000ADB22C43048430BD30B5002304248C407F
:1052F000A3B2048C9C430484048C02FA01F5ADB281
:105300002C43048430BD70B50346002000241846A9
:10531000183001258D40ACB21D8CA5431D8409B108
:10532000082909D100EB6100056825F070050560CA
:105330000568154305600EE00D1FC5F34E052844B2
:10534000056825F4E045056005684FF6FF7606EA36
:1053500002263543056070BD21B1028842F0020289
:10536000028004E002884FF6FD731A400280704705
:1053700021B1028842F00402028004E002884FF664
:10538000FB731A400280704721B1828842F080028C
:10539000828004E082884FF67F731A4082807047D3
:1053A00002884FF6F7731A40028002880A4302808F
:1053B000704782884FF68F731A40828082880A4332
:1053C0008280704702894FF6F8731A400281028981
:1053D0000A430281704702894FF67F731A400281A7
:1053E00002890A4302817047818470478185704732
:1053F000818670470187704781877047A0F8401009
:10540000704702884FF6FF431A40028002880A4321
:10541000028070470146888E70470146088F7047AA
:105420000146888F70470146B1F840007047014639
:10543000888C70470146088D704702460020138A09
:105440000B400BB1012000E000207047CA430282EC
:10545000704730B50246002000230024158A05EA73
:105460000103958905EA010413B10CB1012000E0A4
:10547000002030BDCA4302827047000010B50446C8
:10548000FB48844209D101218803FEF719FF00215E
:105490004FF48040FEF714FF32E0F648844209D111
:1054A00001214804FEF719FF00214FF40030FEF7F8
:1054B00014FF25E0F048844209D101218804FEF759
:1054C0000CFF00214FF48020FEF707FF18E0EB48A7
:1054D000844209D10121C804FEF7FFFE00214FF4E8
:1054E0000020FEF7FAFE0BE0E548844208D10121D6
:1054F0000805FEF7F2FE00214FF48010FEF7EDFEE6
:1055000010BD2DE9F04786B005460E460024A246A0
:1055100000BFA1460027B08900B100BF2F462C8AEA
:105520004CF6FF700440F08804432C82AC894EF6A0
:10553000F3100440B088318908437189084304435B
:10554000AC81AC8A4FF6FF400440B0890443AC8282
:1055500001A8FEF72EFEC648874202D1DDF810A052
:1055600001E0DDF80CA0A88900F4004040B10AEB8E
:10557000CA0000EB0A1031684900B0FBF1F807E0FF
:105580000AEBCA0000EB0A1031688900B0FBF1F8A1
:105590006420B8FBF0F004012009642101FB1089AC
:1055A000A88900F4004040B1322000EBC900B0FBF4
:1055B000F1F000F00700044308E0322000EB09108E
:1055C0006421B0FBF1F000F00F0004432C8106B021
:1055D000BDE8F0874FF41651016000218180C18041
:1055E00001810C21418100218181704710B5024663
:1055F0000020108A4FF2FF0318400B884C88234389
:105600008C882343CC8823431843108210BD00218B
:10561000018041808180C180704721B1828942F43C
:105620000052828104E082894DF6FF731A40828124
:105630007047F0B50346002400260025002040F600
:105640006A17B94200D100BF1846C1F3421401F0F5
:105650001F06012707FA06F5012C01D10C3004E0E2
:10566000022C01D1103000E014301AB107682F432A
:10567000076002E00768AF430760F0BD1AB1838A94
:105680000B43838202E0838A8B4383827047028AC2
:105690004FF6F0731A400282028A0A430282704770
:1056A00082894FF2FF731A40828182890A43828184
:1056B000704721B1828942F00202828104E082892E
:1056C0004FF6FD731A4082817047028A4FF6DF73EE
:1056D0001A400282028A0A430282704721B1028A7A
:1056E00042F48042028204E0028A4BF6FF731A40C1
:1056F00002827047C1F308028280704701468888A1
:10570000C0F308007047818941F001018181704731
:10571000028BD2B20283028B42EA012202837047DB
:10572000028B02F47F420283028B0A43028370479A
:1057300021B1828A42F02002828204E0828A4FF6FE
:10574000DF731A408282704721B1828A42F01002D0
:10575000828204E0828A4FF6EF731A408282704799
:1057600021B1828A42F00802828204E0828A4FF6E6
:10577000F7731A408282704721B1828942F4004255
:10578000828103E08289C2F30E028281704721B1D7
:10579000828A42F40062828204E0828A4FF2FF73BE
:1057A0001A4082827047828A4FF6FB731A408282C7
:1057B000828A0A438282704721B1828A42F00202C1
:1057C000828204E0828A4FF6FD731A40828270471B
:1057D00002460020B1F5007F00D100BF13880B40C6
:1057E0000BB1012000E00020704701F40072B2F517
:1057F000007F00D100BFCA430280704770B50246E7
:10580000002400230025002040F66A16B14200D192
:1058100000BFC1F3421501F01F03012606FA03F38E
:10582000012D02D19689334006E0022D02D1168A5D
:10583000334001E0968A33400C12012606FA04F444
:105840001688344013B10CB1012000E0002070BD77
:1058500010B50022002340F66A14A14200D100BF17
:105860000A1201249440A3B2DC43048010BD00005E
:10587000003801400044004000480040004C004017
:105880000050004010B50121C802FEF726FD00219E
:105890004FF40060FEF721FD10BD0021194A126887
:1058A00022F4C0710143174A1160704708B5002106
:1058B00000911449096821F07F01009100F07F01F7
:1058C000009A114300910F4A0099116008BD012010
:1058D0000D490860704700F07F010A4A121F1160ED
:1058E000704740F08001074A121F11607047054859
:1058F000001D0068C0B2704700200249091D086001
:1059000070470000042C0040A4800542704700004E
:105910000FB4044910B503AA029800F0CDF810BCEA
:105920005DF814FB240000202DE9F0410E460446EA
:10593000002020622046E168884730B3252805D042
:10594000D4E901219047206A401CF2E7E168204633
:1059500000278847050018D0A5F14100192802D872
:1059600020354FF400673246294620462760FAF773
:10597000F7FB40B1012804D0F61D26F007060836D3
:10598000D8E7361DD6E72846DAE7206ABDE8F08179
:1059900070B504460D4621461068AFF3008021889B
:1059A000090502D50F4A7A4402E00E4A7A440E32C3
:1059B000002104F1240305E000F00F060009965DC4
:1059C0005E54491C0028F7D120780023000704D535
:1059D000702D02D009B1022311322046BDE870407B
:1059E00000F011B8B4160000704770477047704758
:1059F00010B500F073F8006810BD10B5044600F053
:105A00006DF8046010BD2DE9F0470D4699469246A9
:105A1000044600F124080168880604D5E06921F0F5
:105A20001001216000E00120A84201DD471B00E0D9
:105A30000027A1697A1902EB0900081AA0612078F1
:105A4000C00602D42046AFF30080002608E0D4E967
:105A500001211AF806009047206A401C761C20623B
:105A60004E45F4DB2078C0060AD52046AFF300800F
:105A700006E0D4E9012130209047206A401C2062D2
:105A8000381EA7F10107F4DC07E0D4E9012118F87A
:105A900005009047206A401C2062281EA5F10105E0
:105AA000F3DC2046AFF300802078000602D5022008
:105AB000BDE8F0870120FBE7074B70B50D467B443E
:105AC00000F015F80446284600F024F810B14FF015
:105AD000FF3070BD204670BD15DDFFFF00487047E8
